{
  "contractName": "Admin",
  "abi": [
    {
      "constant": true,
      "inputs": [
        {
          "name": "",
          "type": "address"
        }
      ],
      "name": "admin",
      "outputs": [
        {
          "name": "",
          "type": "bool"
        }
      ],
      "payable": false,
      "stateMutability": "view",
      "type": "function"
    },
    {
      "constant": false,
      "inputs": [
        {
          "name": "_admin",
          "type": "address"
        }
      ],
      "name": "addAdmin",
      "outputs": [
        {
          "name": "success",
          "type": "bool"
        }
      ],
      "payable": false,
      "stateMutability": "nonpayable",
      "type": "function"
    },
    {
      "inputs": [],
      "payable": false,
      "stateMutability": "nonpayable",
      "type": "constructor"
    }
  ],
  "bytecode": "0x6060604052341561000f57600080fd5b60016000803373ffffffffffffffffffffffffffffffffffffffff1673ffffffffffffffffffffffffffffffffffffffff16815260200190815260200160002060006101000a81548160ff0219169083151502179055506101f8806100756000396000f30060606040526004361061004c576000357c0100000000000000000000000000000000000000000000000000000000900463ffffffff16806363a846f81461005157806370480275146100a2575b600080fd5b341561005c57600080fd5b610088600480803573ffffffffffffffffffffffffffffffffffffffff169060200190919050506100f3565b604051808215151515815260200191505060405180910390f35b34156100ad57600080fd5b6100d9600480803573ffffffffffffffffffffffffffffffffffffffff16906020019091905050610113565b604051808215151515815260200191505060405180910390f35b60006020528060005260406000206000915054906101000a900460ff1681565b60008060003373ffffffffffffffffffffffffffffffffffffffff1673ffffffffffffffffffffffffffffffffffffffff16815260200190815260200160002060009054906101000a900460ff16151561016c57600080fd5b60016000808473ffffffffffffffffffffffffffffffffffffffff1673ffffffffffffffffffffffffffffffffffffffff16815260200190815260200160002060006101000a81548160ff021916908315150217905550600190509190505600a165627a7a7230582094c2044742d7657906eac48bfc19a01cbcfcea157ae032c916dfc2312d0b8b570029",
  "source": "/**\n Copyright 2017-2018 GitToken\n\n Permission is hereby granted, free of charge, to any person obtaining a copy of\n this software and associated documentation files (the \"Software\"), to deal in\n the Software without restriction, including without limitation the rights to use,\n copy, modify, merge, publish, distribute, sublicense, and/or sell copies of the\n Software, and to permit persons to whom the Software is furnished to do so,\n subject to the following conditions:\n\n The above copyright notice and this permission notice shall be included in all\n copies or substantial portions of the Software.\n\n THE SOFTWARE IS PROVIDED \"AS IS\", WITHOUT WARRANTY OF ANY KIND, EXPRESS OR IMPLIED,\n INCLUDING BUT NOT LIMITED TO THE WARRANTIES OF MERCHANTABILITY, FITNESS FOR A\n PARTICULAR PURPOSE AND NONINFRINGEMENT. IN NO EVENT SHALL THE AUTHORS OR\n COPYRIGHT HOLDERS BE LIABLE FOR ANY CLAIM, DAMAGES OR OTHER LIABILITY, WHETHER\n IN AN ACTION OF CONTRACT, TORT OR OTHERWISE, ARISING FROM, OUT OF OR IN CONNECTION\n WITH THE SOFTWARE OR THE USE OR OTHER DEALINGS IN THE SOFTWARE.\n */\n\npragma solidity ^0.4.15;\n\n\n/**\n * @title Admin\n * @author Ryan Michael Tate <ryan.tate@gittoken.io>\n */\n\ncontract Admin {\n\n  mapping(address => bool) public admin;\n\n  function Admin() public {\n    admin[msg.sender] = true;\n  }\n\n  function addAdmin(address _admin) onlyAdmin public returns (bool success){\n    admin[_admin] = true;\n    return true;\n  }\n\n  modifier onlyAdmin() {\n    require(admin[msg.sender]);\n    _;\n  }\n\n}\n",
  "sourcePath": "/Users/ryan/Projects/GitToken/gittoken-contracts/contracts/Admin.sol",
  "compiler": {
    "name": "solc",
    "version": "0.4.18+commit.9cf6e910.Emscripten.clang"
  },
  "schemaVersion": "1.0.1",
  "updatedAt": "2017-12-04T00:45:58.892Z"
}