{
  "contractName": "GitToken",
  "abi": [
    {
      "constant": true,
      "inputs": [],
      "name": "supply",
      "outputs": [
        {
          "name": "",
          "type": "uint256"
        }
      ],
      "payable": false,
      "stateMutability": "view",
      "type": "function"
    },
    {
      "constant": true,
      "inputs": [],
      "name": "name",
      "outputs": [
        {
          "name": "_name",
          "type": "string"
        }
      ],
      "payable": false,
      "stateMutability": "view",
      "type": "function"
    },
    {
      "constant": false,
      "inputs": [
        {
          "name": "_spender",
          "type": "address"
        },
        {
          "name": "_value",
          "type": "uint256"
        }
      ],
      "name": "approve",
      "outputs": [
        {
          "name": "success",
          "type": "bool"
        }
      ],
      "payable": false,
      "stateMutability": "nonpayable",
      "type": "function"
    },
    {
      "constant": true,
      "inputs": [],
      "name": "totalSupply",
      "outputs": [
        {
          "name": "_supply",
          "type": "uint256"
        }
      ],
      "payable": false,
      "stateMutability": "view",
      "type": "function"
    },
    {
      "constant": true,
      "inputs": [
        {
          "name": "_username",
          "type": "string"
        }
      ],
      "name": "contributor",
      "outputs": [
        {
          "name": "_contributor",
          "type": "address"
        }
      ],
      "payable": false,
      "stateMutability": "view",
      "type": "function"
    },
    {
      "constant": true,
      "inputs": [],
      "name": "signer",
      "outputs": [
        {
          "name": "",
          "type": "address"
        }
      ],
      "payable": false,
      "stateMutability": "view",
      "type": "function"
    },
    {
      "constant": false,
      "inputs": [
        {
          "name": "_from",
          "type": "address"
        },
        {
          "name": "_to",
          "type": "address"
        },
        {
          "name": "_value",
          "type": "uint256"
        }
      ],
      "name": "transferFrom",
      "outputs": [
        {
          "name": "",
          "type": "bool"
        }
      ],
      "payable": false,
      "stateMutability": "nonpayable",
      "type": "function"
    },
    {
      "constant": true,
      "inputs": [],
      "name": "organization",
      "outputs": [
        {
          "name": "_organization",
          "type": "string"
        }
      ],
      "payable": false,
      "stateMutability": "view",
      "type": "function"
    },
    {
      "constant": true,
      "inputs": [
        {
          "name": "_contributor",
          "type": "address"
        }
      ],
      "name": "isAdmin",
      "outputs": [
        {
          "name": "",
          "type": "bool"
        }
      ],
      "payable": false,
      "stateMutability": "view",
      "type": "function"
    },
    {
      "constant": false,
      "inputs": [
        {
          "name": "_recipients",
          "type": "address[]"
        },
        {
          "name": "_values",
          "type": "uint256[]"
        }
      ],
      "name": "distribute",
      "outputs": [
        {
          "name": "success",
          "type": "bool"
        }
      ],
      "payable": false,
      "stateMutability": "nonpayable",
      "type": "function"
    },
    {
      "constant": true,
      "inputs": [],
      "name": "decimals",
      "outputs": [
        {
          "name": "_decimals",
          "type": "uint256"
        }
      ],
      "payable": false,
      "stateMutability": "view",
      "type": "function"
    },
    {
      "constant": true,
      "inputs": [
        {
          "name": "_holder",
          "type": "address"
        }
      ],
      "name": "balanceOf",
      "outputs": [
        {
          "name": "_balance",
          "type": "uint256"
        }
      ],
      "payable": false,
      "stateMutability": "view",
      "type": "function"
    },
    {
      "constant": true,
      "inputs": [
        {
          "name": "_signer",
          "type": "address"
        }
      ],
      "name": "isSigner",
      "outputs": [
        {
          "name": "",
          "type": "bool"
        }
      ],
      "payable": false,
      "stateMutability": "view",
      "type": "function"
    },
    {
      "constant": true,
      "inputs": [],
      "name": "symbol",
      "outputs": [
        {
          "name": "_symbol",
          "type": "string"
        }
      ],
      "payable": false,
      "stateMutability": "view",
      "type": "function"
    },
    {
      "constant": false,
      "inputs": [
        {
          "name": "_to",
          "type": "address"
        },
        {
          "name": "_value",
          "type": "uint256"
        }
      ],
      "name": "transfer",
      "outputs": [
        {
          "name": "",
          "type": "bool"
        }
      ],
      "payable": false,
      "stateMutability": "nonpayable",
      "type": "function"
    },
    {
      "constant": true,
      "inputs": [
        {
          "name": "_owner",
          "type": "address"
        },
        {
          "name": "_spender",
          "type": "address"
        }
      ],
      "name": "allowance",
      "outputs": [
        {
          "name": "_allowance",
          "type": "uint256"
        }
      ],
      "payable": false,
      "stateMutability": "view",
      "type": "function"
    },
    {
      "inputs": [
        {
          "name": "_organization",
          "type": "string"
        },
        {
          "name": "_name",
          "type": "string"
        },
        {
          "name": "_symbol",
          "type": "string"
        },
        {
          "name": "_decimals",
          "type": "uint256"
        },
        {
          "name": "_admin",
          "type": "address"
        },
        {
          "name": "_adminUsername",
          "type": "string"
        }
      ],
      "payable": false,
      "stateMutability": "nonpayable",
      "type": "constructor"
    },
    {
      "payable": false,
      "stateMutability": "nonpayable",
      "type": "fallback"
    },
    {
      "anonymous": false,
      "inputs": [
        {
          "indexed": true,
          "name": "owner",
          "type": "address"
        },
        {
          "indexed": true,
          "name": "spender",
          "type": "address"
        },
        {
          "indexed": false,
          "name": "value",
          "type": "uint256"
        }
      ],
      "name": "Approval",
      "type": "event"
    },
    {
      "anonymous": false,
      "inputs": [
        {
          "indexed": true,
          "name": "from",
          "type": "address"
        },
        {
          "indexed": true,
          "name": "to",
          "type": "address"
        },
        {
          "indexed": false,
          "name": "value",
          "type": "uint256"
        }
      ],
      "name": "Transfer",
      "type": "event"
    },
    {
      "anonymous": false,
      "inputs": [
        {
          "indexed": false,
          "name": "to",
          "type": "address"
        },
        {
          "indexed": false,
          "name": "value",
          "type": "uint256"
        }
      ],
      "name": "Distributed",
      "type": "event"
    }
  ],
  "bytecode": "0x606060405234156200001057600080fd5b6040516200176b3803806200176b8339810160405280805182019190602001805182019190602001805182019190602001805190602001909190805190602001909190805182019190505033806000806101000a81548173ffffffffffffffffffffffffffffffffffffffff021916908373ffffffffffffffffffffffffffffffffffffffff160217905550506000600581905550826004819055508460019080519060200190620000c492919062000207565b508560039080519060200190620000dd92919062000207565b508360029080519060200190620000f692919062000207565b506001600860008473ffffffffffffffffffffffffffffffffffffffff1673ffffffffffffffffffffffffffffffffffffffff16815260200190815260200160002060006101000a81548160ff021916908315150217905550816009826040518082805190602001908083835b6020831015156200018a578051825260208201915060208101905060208303925062000163565b6001836020036101000a038019825116818451168082178552505050505050905001915050908152602001604051809103902060006101000a81548173ffffffffffffffffffffffffffffffffffffffff021916908373ffffffffffffffffffffffffffffffffffffffff160217905550505050505050620002b6565b828054600181600116156101000203166002900490600052602060002090601f016020900481019282601f106200024a57805160ff19168380011785556200027b565b828001600101855582156200027b579182015b828111156200027a5782518255916020019190600101906200025d565b5b5090506200028a91906200028e565b5090565b620002b391905b80821115620002af57600081600090555060010162000295565b5090565b90565b6114a580620002c66000396000f3006060604052600436106100e6576000357c0100000000000000000000000000000000000000000000000000000000900463ffffffff168063047fc9aa146100f657806306fdde031461011f578063095ea7b3146101ad57806318160ddd146102075780631ade29f514610230578063238ac933146102cd57806323b872dd1461032257806323bd4d7a1461039b57806324d7806c146104295780632929abe61461047a578063313ce5671461052c57806370a08231146105555780637df73e27146105a257806395d89b41146105f3578063a9059cbb14610681578063dd62ed3e146106db575b34156100f157600080fd5b600080fd5b341561010157600080fd5b610109610747565b6040518082815260200191505060405180910390f35b341561012a57600080fd5b61013261074d565b6040518080602001828103825283818151815260200191508051906020019080838360005b83811015610172578082015181840152602081019050610157565b50505050905090810190601f16801561019f5780820380516001836020036101000a031916815260200191505b509250505060405180910390f35b34156101b857600080fd5b6101ed600480803573ffffffffffffffffffffffffffffffffffffffff169060200190919080359060200190919050506107f5565b604051808215151515815260200191505060405180910390f35b341561021257600080fd5b61021a610998565b6040518082815260200191505060405180910390f35b341561023b57600080fd5b61028b600480803590602001908201803590602001908080601f016020809104026020016040519081016040528093929190818152602001838380828437820191505050505050919050506109a2565b604051808273ffffffffffffffffffffffffffffffffffffffff1673ffffffffffffffffffffffffffffffffffffffff16815260200191505060405180910390f35b34156102d857600080fd5b6102e0610a37565b604051808273ffffffffffffffffffffffffffffffffffffffff1673ffffffffffffffffffffffffffffffffffffffff16815260200191505060405180910390f35b341561032d57600080fd5b610381600480803573ffffffffffffffffffffffffffffffffffffffff1690602001909190803573ffffffffffffffffffffffffffffffffffffffff16906020019091908035906020019091905050610a5c565b604051808215151515815260200191505060405180910390f35b34156103a657600080fd5b6103ae610d27565b6040518080602001828103825283818151815260200191508051906020019080838360005b838110156103ee5780820151818401526020810190506103d3565b50505050905090810190601f16801561041b5780820380516001836020036101000a031916815260200191505b509250505060405180910390f35b341561043457600080fd5b610460600480803573ffffffffffffffffffffffffffffffffffffffff16906020019091905050610dcf565b604051808215151515815260200191505060405180910390f35b341561048557600080fd5b61051260048080359060200190820180359060200190808060200260200160405190810160405280939291908181526020018383602002808284378201915050505050509190803590602001908201803590602001908080602002602001604051908101604052809392919081815260200183836020028082843782019150505050505091905050610e25565b604051808215151515815260200191505060405180910390f35b341561053757600080fd5b61053f61104f565b6040518082815260200191505060405180910390f35b341561056057600080fd5b61058c600480803573ffffffffffffffffffffffffffffffffffffffff16906020019091905050611059565b6040518082815260200191505060405180910390f35b34156105ad57600080fd5b6105d9600480803573ffffffffffffffffffffffffffffffffffffffff169060200190919050506110a2565b604051808215151515815260200191505060405180910390f35b34156105fe57600080fd5b6106066110fb565b6040518080602001828103825283818151815260200191508051906020019080838360005b8381101561064657808201518184015260208101905061062b565b50505050905090810190601f1680156106735780820380516001836020036101000a031916815260200191505b509250505060405180910390f35b341561068c57600080fd5b6106c1600480803573ffffffffffffffffffffffffffffffffffffffff169060200190919080359060200190919050506111a3565b604051808215151515815260200191505060405180910390f35b34156106e657600080fd5b610731600480803573ffffffffffffffffffffffffffffffffffffffff1690602001909190803573ffffffffffffffffffffffffffffffffffffffff1690602001909190505061133e565b6040518082815260200191505060405180910390f35b60055481565b610755611465565b60018054600181600116156101000203166002900480601f0160208091040260200160405190810160405280929190818152602001828054600181600116156101000203166002900480156107eb5780601f106107c0576101008083540402835291602001916107eb565b820191906000526020600020905b8154815290600101906020018083116107ce57829003601f168201915b5050505050905090565b6000600260046020820201600036905014151561081157600080fd5b600083148061089c57506000600760003373ffffffffffffffffffffffffffffffffffffffff1673ffffffffffffffffffffffffffffffffffffffff16815260200190815260200160002060008673ffffffffffffffffffffffffffffffffffffffff1673ffffffffffffffffffffffffffffffffffffffff16815260200190815260200160002054145b15156108a757600080fd5b82600760003373ffffffffffffffffffffffffffffffffffffffff1673ffffffffffffffffffffffffffffffffffffffff16815260200190815260200160002060008673ffffffffffffffffffffffffffffffffffffffff1673ffffffffffffffffffffffffffffffffffffffff168152602001908152602001600020819055508373ffffffffffffffffffffffffffffffffffffffff163373ffffffffffffffffffffffffffffffffffffffff167f8c5be1e5ebec7d5bd14f71427d1e84f3dd0314c0f7b2291e5b200ac8c7c3b925856040518082815260200191505060405180910390a3600191505092915050565b6000600554905090565b60006009826040518082805190602001908083835b6020831015156109dc57805182526020820191506020810190506020830392506109b7565b6001836020036101000a038019825116818451168082178552505050505050905001915050908152602001604051809103902060009054906101000a900473ffffffffffffffffffffffffffffffffffffffff169050919050565b6000809054906101000a900473ffffffffffffffffffffffffffffffffffffffff1681565b6000806003600460208202016000369050141515610a7957600080fd5b600760008773ffffffffffffffffffffffffffffffffffffffff1673ffffffffffffffffffffffffffffffffffffffff16815260200190815260200160002060003373ffffffffffffffffffffffffffffffffffffffff1673ffffffffffffffffffffffffffffffffffffffff168152602001908152602001600020549150610b0b84836113c590919063ffffffff16565b600760008873ffffffffffffffffffffffffffffffffffffffff1673ffffffffffffffffffffffffffffffffffffffff16815260200190815260200160002060003373ffffffffffffffffffffffffffffffffffffffff1673ffffffffffffffffffffffffffffffffffffffff16815260200190815260200160002081905550610bdd84600660008873ffffffffffffffffffffffffffffffffffffffff1673ffffffffffffffffffffffffffffffffffffffff168152602001908152602001600020546113de90919063ffffffff16565b600660008773ffffffffffffffffffffffffffffffffffffffff1673ffffffffffffffffffffffffffffffffffffffff16815260200190815260200160002081905550610c7284600660008973ffffffffffffffffffffffffffffffffffffffff1673ffffffffffffffffffffffffffffffffffffffff168152602001908152602001600020546113c590919063ffffffff16565b600660008873ffffffffffffffffffffffffffffffffffffffff1673ffffffffffffffffffffffffffffffffffffffff168152602001908152602001600020819055508473ffffffffffffffffffffffffffffffffffffffff168673ffffffffffffffffffffffffffffffffffffffff167fddf252ad1be2c89b69c2b068fc378daa952ba7f163c4a11628f55a4df523b3ef866040518082815260200191505060405180910390a36001925050509392505050565b610d2f611465565b60038054600181600116156101000203166002900480601f016020809104026020016040519081016040528092919081815260200182805460018160011615610100020316600290048015610dc55780601f10610d9a57610100808354040283529160200191610dc5565b820191906000526020600020905b815481529060010190602001808311610da857829003601f168201915b5050505050905090565b6000600860008373ffffffffffffffffffffffffffffffffffffffff1673ffffffffffffffffffffffffffffffffffffffff16815260200190815260200160002060009054906101000a900460ff169050919050565b6000803373ffffffffffffffffffffffffffffffffffffffff166000809054906101000a900473ffffffffffffffffffffffffffffffffffffffff1673ffffffffffffffffffffffffffffffffffffffff16141515610e8357600080fd5b82518451141515610e9357600080fd5b600090505b835181101561102157610f218382815181101515610eb257fe5b90602001906020020151600660008785815181101515610ece57fe5b9060200190602002015173ffffffffffffffffffffffffffffffffffffffff1673ffffffffffffffffffffffffffffffffffffffff168152602001908152602001600020546113de90919063ffffffff16565b600660008684815181101515610f3357fe5b9060200190602002015173ffffffffffffffffffffffffffffffffffffffff1673ffffffffffffffffffffffffffffffffffffffff168152602001908152602001600020819055507fb649c98f58055c520df0dcb5709eff2e931217ff2fb1e21376130d31bbb1c0af8482815181101515610faa57fe5b906020019060200201518483815181101515610fc257fe5b90602001906020020151604051808373ffffffffffffffffffffffffffffffffffffffff1673ffffffffffffffffffffffffffffffffffffffff1681526020018281526020019250505060405180910390a18080600101915050610e98565b61103e61102d846113fc565b6005546113de90919063ffffffff16565b600581905550600191505092915050565b6000600454905090565b6000600660008373ffffffffffffffffffffffffffffffffffffffff1673ffffffffffffffffffffffffffffffffffffffff168152602001908152602001600020549050919050565b60008173ffffffffffffffffffffffffffffffffffffffff166000809054906101000a900473ffffffffffffffffffffffffffffffffffffffff1673ffffffffffffffffffffffffffffffffffffffff16149050919050565b611103611465565b60028054600181600116156101000203166002900480601f0160208091040260200160405190810160405280929190818152602001828054600181600116156101000203166002900480156111995780601f1061116e57610100808354040283529160200191611199565b820191906000526020600020905b81548152906001019060200180831161117c57829003601f168201915b5050505050905090565b60006111f782600660003373ffffffffffffffffffffffffffffffffffffffff1673ffffffffffffffffffffffffffffffffffffffff168152602001908152602001600020546113c590919063ffffffff16565b600660003373ffffffffffffffffffffffffffffffffffffffff1673ffffffffffffffffffffffffffffffffffffffff1681526020019081526020016000208190555061128c82600660008673ffffffffffffffffffffffffffffffffffffffff1673ffffffffffffffffffffffffffffffffffffffff168152602001908152602001600020546113de90919063ffffffff16565b600660008573ffffffffffffffffffffffffffffffffffffffff1673ffffffffffffffffffffffffffffffffffffffff168152602001908152602001600020819055508273ffffffffffffffffffffffffffffffffffffffff163373ffffffffffffffffffffffffffffffffffffffff167fddf252ad1be2c89b69c2b068fc378daa952ba7f163c4a11628f55a4df523b3ef846040518082815260200191505060405180910390a36001905092915050565b6000600760008473ffffffffffffffffffffffffffffffffffffffff1673ffffffffffffffffffffffffffffffffffffffff16815260200190815260200160002060008373ffffffffffffffffffffffffffffffffffffffff1673ffffffffffffffffffffffffffffffffffffffff16815260200190815260200160002054905092915050565b60008282111515156113d357fe5b818303905092915050565b60008082840190508381101515156113f257fe5b8091505092915050565b600080600080845111151561140d57fe5b60009150600090505b835181101561144f5761144082858381518110151561143157fe5b906020019060200201516113de565b91508080600101915050611416565b60008211151561145b57fe5b8192505050919050565b6020604051908101604052806000815250905600a165627a7a723058200ae60e9205f04ab086905253f0c74e3d5e965c1ad6b50293927b5eb2f695a3130029",
  "source": "/**\n Copyright 2017-2018 GitToken\n\n Permission is hereby granted, free of charge, to any person obtaining a copy of\n this software and associated documentation files (the \"Software\"), to deal in\n the Software without restriction, including without limitation the rights to use,\n copy, modify, merge, publish, distribute, sublicense, and/or sell copies of the\n Software, and to permit persons to whom the Software is furnished to do so,\n subject to the following conditions:\n\n The above copyright notice and this permission notice shall be included in all\n copies or substantial portions of the Software.\n\n THE SOFTWARE IS PROVIDED \"AS IS\", WITHOUT WARRANTY OF ANY KIND, EXPRESS OR IMPLIED,\n INCLUDING BUT NOT LIMITED TO THE WARRANTIES OF MERCHANTABILITY, FITNESS FOR A\n PARTICULAR PURPOSE AND NONINFRINGEMENT. IN NO EVENT SHALL THE AUTHORS OR\n COPYRIGHT HOLDERS BE LIABLE FOR ANY CLAIM, DAMAGES OR OTHER LIABILITY, WHETHER\n IN AN ACTION OF CONTRACT, TORT OR OTHERWISE, ARISING FROM, OUT OF OR IN CONNECTION\n WITH THE SOFTWARE OR THE USE OR OTHER DEALINGS IN THE SOFTWARE.\n */\n\npragma solidity ^0.4.15;\n\nimport './Signed.sol';\nimport './SafeMath.sol';\n\n/**\n * @title GitToken Contract for distributing ERC20 tokens for Git contributions;\n * @author Ryan Michael Tate <ryan.tate@gittoken.io>\n */\ncontract GitToken is Signed {\n\n  using SafeMath for uint;\n  using SafeMath for uint[];\n\n  string public name;\n  string public symbol;\n  string public organization;\n  uint256 public decimals;\n  uint256 public supply;\n  mapping(address => uint) balances;\n  mapping(address => mapping(address => uint)) allowed;\n\n  mapping(address => bool) admins;\n  mapping(string => address) contributors;\n\n  /**\n   * ERC20 Approval Event | Emitted when a spender is approved by an owner\n   * @param owner   address Ethereum address of owner of tokens,\n   * @param spender address Ethereum address of approved spender of tokens,\n   * @param value   uint    Number of tokens to approve spender for;\n   */\n  event Approval(address indexed owner, address indexed spender, uint value);\n\n  /**\n   * ERC20 Transfer Event | Emitted when a transfer is made between accounts\n   * @param from  address Ethereum address of tokens sent from,\n   * @param to    address Ethereum address of tokens sent to,\n   * @param value uint    Number of tokens to transfer;\n   */\n  event Transfer(address indexed from, address indexed to, uint value);\n\n  /**\n   * Distribute Event | Emitted when the signer Distributes tokens to contributors;\n   * Event is called when a token distribution event is triggered (e.g. milestone reached)\n   * @param to address Ethereum address of tokens to distribute to\n   * @param value Number of tokens distributed to Ethereum address\n   */\n  event Distributed(address to, uint value);\n\n  function GitToken(\n    string _organization,\n    string _name,\n    string _symbol,\n    uint256 _decimals,\n    address _admin,\n    string _adminUsername\n  ) Signed(msg.sender) public {\n\n    // Set Token Details\n    supply = 0;\n    decimals = _decimals;\n    name = _name;\n    organization = _organization;\n    symbol = _symbol;\n\n    // Set Admin Settings\n    admins[_admin] = true;\n    contributors[_adminUsername] = _admin;\n  }\n\n  /**\n   * @dev Returns the current total supply of tokens issued\n   * returns _supply uint Supply of tokens currently issued\n   * NOTE: Remember to adjust supply for decimals representation (e.g. supply / 10 ** decimals)\n   */\n  function totalSupply() public constant returns (uint _supply) {\n    return supply;\n  }\n\n  /**\n   * @dev Returns the number of decimal places to adjust token values\n   * returns _decimals uint Number of decimal places\n   * NOTE: Remember to adjust token values for decimals representation (e.g. value / 10 ** decimals)\n   */\n  function decimals() public constant returns (uint _decimals) {\n    return decimals;\n  }\n\n  /**\n   * @dev Returns the string of the GitHub organization associated with the contract\n   * returns _organization string GitHub organization (e.g. git-token)\n   * NOTE: This value is used to make GitHub API calls; it must be associated with\n   * the GitHub organization the web hook has been configured for.\n   */\n  function organization() public constant returns (string _organization) {\n    return organization;\n  }\n\n  /**\n   * [contributor description]\n   * @param  _username string GitHub Username\n   * returns _contributor address associated with GitHub username\n   */\n  function contributor(string _username) public view returns (address _contributor) {\n    return  contributors[_username];\n  }\n\n  /**\n   * External method to check if an Ethereum address is an admin of this contract\n   * @param  _contributor  address of contributor\n   * returns\n   */\n  function isAdmin(address _contributor) public view returns(bool) {\n    return admins[_contributor];\n  }\n\n  /**\n   * External method to check if an Ethereum address is the signer of this contract\n   * @param  _signer  address of contributor\n   * returns\n   */\n  function isSigner(address _signer) public view returns(bool) {\n    return signer == _signer;\n  }\n\n  /**\n   * @dev Returns the string of the token contract name\n   * returns _name string Name of the token contract\n   */\n  function name() public constant returns (string _name) {\n    return name;\n  }\n\n  /**\n   * @dev Returns the string of the token contract symbol\n   * returns _symbol string Symbol of the token contract\n   */\n  function symbol() public constant returns (string _symbol) {\n    return symbol;\n  }\n\n  /**\n   * @dev ERC20 `balanceOf` Method | Returns the balance of tokens associated with the address provided\n   * @param  _holder      address Ethereum address to find token balance for\n   * returns _balance     uint    Value of tokens held by ethereum address\n   */\n  function balanceOf(address _holder) public constant returns (uint _balance) {\n    return balances[_holder];\n  }\n\n  /**\n   * @dev ERC20 `allowance` Method | Check the spender allowance for a token owner\n   * @param  _owner     address Ethereum address of token owner,\n   * @param  _spender   address Ethereum address of spender,\n   * returns _allowance uint    Number of tokens allowed by the owner to be\n   * moved by the spender\n   */\n  function allowance(address _owner, address _spender) public constant returns (uint _allowance) {\n    return allowed[_owner][_spender];\n  }\n\n  /**\n   * @dev ERC20 `transfer` Method | Transfer tokens to account from sender account\n   * @param  _to      address Ethereum address to transfer tokens to,\n   * @param  _value   uint    Number of tokens to transfer,\n   * returns          bool    Returns boolean value if method is called\n   */\n  function transfer(address _to, uint _value ) public returns (bool) {\n    balances[msg.sender] = balances[msg.sender].sub(_value);\n    balances[_to] = balances[_to].add(_value);\n    Transfer(msg.sender, _to, _value);\n    return true;\n  }\n\n  /**\n   * @dev ERC20 `transferFrom` Method | Allow approved spender (msg.sender) to transfer tokens from one account to another\n   * @param  _from  address Ethereum address to move tokens from,\n   * @param  _to    address Ethereum address to move tokens to,\n   * @param  _value uint    Number of tokens to move between accounts,\n   * returns        bool    Retrusn boolean value if method is called\n   */\n  function transferFrom(address _from, address _to, uint _value) public onlyPayloadSize(3) returns (bool) {\n    // Check if msg.sender has sufficient allowance;\n    // Check is handled by SafeMath library _allowance.sub(_value);\n    // Set new allowance after subtracting the value from the allowance\n    uint _allowance = allowed[_from][msg.sender];\n    allowed[_from][msg.sender] = _allowance.sub(_value);\n\n    // Update balances\n    balances[_to] = balances[_to].add(_value);\n    balances[_from] = balances[_from].sub(_value);\n    Transfer(_from, _to, _value);\n    return true;\n  }\n\n  /**\n   * @dev ERC20 `approve` Method | Approve spender to transfer an amount of\n   * tokens on behalf of another account\n   * @param  _spender address Ethereum address of spender to approve,\n   * @param  _value   uint    Number of tokens to approve spender to transfer,\n   * returns          bool    Returns boolean value is method is called;\n   * NOTE: Explicitly check if the approved address already has an allowance,\n   * Ensure the approver must reset the approved value to 0 before changing to the desired amount.\n   * see: https://github.com/ethereum/EIPs/issues/20#issuecomment-263524729\n   */\n  function approve(address _spender,uint _value) public onlyPayloadSize(2) returns (bool success) {\n    require(_value == 0 || allowed[msg.sender][_spender] == 0);\n    allowed[msg.sender][_spender] = _value;\n    Approval(msg.sender, _spender, _value);\n    return true;\n  }\n\n  /**\n   * Distribute GitTokens to contributors; Method is only used by the authorized signer\n   * @param  _recipients address[] Array of addresses to distribute tokens to\n   * @param  _values uint[]    Array of token values to distribute to contributors\n   * returns bool\n   */\n  function distribute(address[] _recipients, uint256[] _values) onlySigner public returns (bool success) {\n    require(_recipients.length == _values.length);\n    for (uint i = 0; i < _recipients.length; i++) {\n        balances[_recipients[i]] = balances[_recipients[i]].add(_values[i]);\n        Distributed(_recipients[i], _values[i]);\n    }\n\n    supply = supply.add(_values.sum());\n\n    return true;\n  }\n\n\n  /**\n   * Fallback function; does nothing; reverts the transaction\n   */\n  function() public {\n    revert();\n  }\n\n  /**\n   * @dev This modifier checks the data length to ensure that it matches the padded\n   * length of the input data provided to the method.\n   */\n  modifier onlyPayloadSize(uint inputLength) {\n     require(msg.data.length == inputLength * 32 + 4);\n     _;\n  }\n}\n",
  "sourcePath": "/Users/ryan/Projects/GitToken/gittoken-contracts/contracts/GitToken.sol",
  "compiler": {
    "name": "solc",
    "version": "0.4.18+commit.9cf6e910.Emscripten.clang"
  },
  "schemaVersion": "1.0.1",
  "updatedAt": "2017-12-04T00:45:58.894Z"
}