{
  "contractName": "GitTokenAuction",
  "abi": [
    {
      "constant": true,
      "inputs": [],
      "name": "signer",
      "outputs": [
        {
          "name": "",
          "type": "address"
        }
      ],
      "payable": false,
      "stateMutability": "view",
      "type": "function"
    },
    {
      "constant": false,
      "inputs": [
        {
          "name": "_gittoken",
          "type": "address"
        },
        {
          "name": "_price",
          "type": "uint256"
        }
      ],
      "name": "bid",
      "outputs": [
        {
          "name": "success",
          "type": "bool"
        }
      ],
      "payable": true,
      "stateMutability": "payable",
      "type": "function"
    },
    {
      "constant": false,
      "inputs": [
        {
          "name": "_gittoken",
          "type": "address"
        },
        {
          "name": "_minPrice",
          "type": "uint256"
        }
      ],
      "name": "auction",
      "outputs": [
        {
          "name": "success",
          "type": "bool"
        }
      ],
      "payable": false,
      "stateMutability": "nonpayable",
      "type": "function"
    },
    {
      "inputs": [],
      "payable": false,
      "stateMutability": "nonpayable",
      "type": "constructor"
    },
    {
      "anonymous": false,
      "inputs": [
        {
          "indexed": true,
          "name": "gittoken",
          "type": "address"
        },
        {
          "indexed": false,
          "name": "round",
          "type": "uint256"
        },
        {
          "indexed": false,
          "name": "startDate",
          "type": "uint256"
        },
        {
          "indexed": false,
          "name": "endDate",
          "type": "uint256"
        },
        {
          "indexed": false,
          "name": "tokensOffered",
          "type": "uint256"
        },
        {
          "indexed": false,
          "name": "initialPrice",
          "type": "uint256"
        }
      ],
      "name": "NewAuction",
      "type": "event"
    },
    {
      "anonymous": false,
      "inputs": [
        {
          "indexed": true,
          "name": "gittoken",
          "type": "address"
        },
        {
          "indexed": false,
          "name": "bidder",
          "type": "address"
        },
        {
          "indexed": false,
          "name": "round",
          "type": "uint256"
        },
        {
          "indexed": false,
          "name": "tokens",
          "type": "uint256"
        },
        {
          "indexed": false,
          "name": "price",
          "type": "uint256"
        },
        {
          "indexed": false,
          "name": "value",
          "type": "uint256"
        }
      ],
      "name": "Bid",
      "type": "event"
    }
  ],
  "bytecode": "0x6060604052341561000f57600080fd5b33806000806101000a81548173ffffffffffffffffffffffffffffffffffffffff021916908373ffffffffffffffffffffffffffffffffffffffff16021790555050611308806100606000396000f300606060405260043610610057576000357c0100000000000000000000000000000000000000000000000000000000900463ffffffff168063238ac9331461005c57806359d667a5146100b157806387e1d07f14610100575b600080fd5b341561006757600080fd5b61006f61015a565b604051808273ffffffffffffffffffffffffffffffffffffffff1673ffffffffffffffffffffffffffffffffffffffff16815260200191505060405180910390f35b6100e6600480803573ffffffffffffffffffffffffffffffffffffffff1690602001909190803590602001909190505061017f565b604051808215151515815260200191505060405180910390f35b341561010b57600080fd5b610140600480803573ffffffffffffffffffffffffffffffffffffffff169060200190919080359060200190919050506108e7565b604051808215151515815260200191505060405180910390f35b6000809054906101000a900473ffffffffffffffffffffffffffffffffffffffff1681565b600080838342600160008473ffffffffffffffffffffffffffffffffffffffff1673ffffffffffffffffffffffffffffffffffffffff1681526020019081526020016000206000600260008673ffffffffffffffffffffffffffffffffffffffff1673ffffffffffffffffffffffffffffffffffffffff168152602001908152602001600020548152602001908152602001600020600001541115151561022557600080fd5b42600160008473ffffffffffffffffffffffffffffffffffffffff1673ffffffffffffffffffffffffffffffffffffffff1681526020019081526020016000206000600260008673ffffffffffffffffffffffffffffffffffffffff1673ffffffffffffffffffffffffffffffffffffffff16815260200190815260200160002054815260200190815260200160002060010154101515156102c657600080fd5b8034101580156102d65750600081115b15156102e157600080fd5b600160008773ffffffffffffffffffffffffffffffffffffffff1673ffffffffffffffffffffffffffffffffffffffff1681526020019081526020016000206000600260008973ffffffffffffffffffffffffffffffffffffffff1673ffffffffffffffffffffffffffffffffffffffff1681526020019081526020016000205481526020019081526020016000206008018054806001018281610385919061128b565b916000526020600020900160003490919091505550600160008773ffffffffffffffffffffffffffffffffffffffff1673ffffffffffffffffffffffffffffffffffffffff1681526020019081526020016000206000600260008973ffffffffffffffffffffffffffffffffffffffff1673ffffffffffffffffffffffffffffffffffffffff168152602001908152602001600020548152602001908152602001600020600901805480600101828161043e919061128b565b916000526020600020900160008790919091505550610626600160008873ffffffffffffffffffffffffffffffffffffffff1673ffffffffffffffffffffffffffffffffffffffff1681526020019081526020016000206000600260008a73ffffffffffffffffffffffffffffffffffffffff1673ffffffffffffffffffffffffffffffffffffffff16815260200190815260200160002054815260200190815260200160002060090180548060200260200160405190810160405280929190818152602001828054801561053257602002820191906000526020600020905b81548152602001906001019080831161051e575b5050505050600160008973ffffffffffffffffffffffffffffffffffffffff1673ffffffffffffffffffffffffffffffffffffffff1681526020019081526020016000206000600260008b73ffffffffffffffffffffffffffffffffffffffff1673ffffffffffffffffffffffffffffffffffffffff16815260200190815260200160002054815260200190815260200160002060080180548060200260200160405190810160405280929190818152602001828054801561061357602002820191906000526020600020905b8154815260200190600101908083116105ff575b50505050506110f090919063ffffffff16565b600160008873ffffffffffffffffffffffffffffffffffffffff1673ffffffffffffffffffffffffffffffffffffffff1681526020019081526020016000206000600260008a73ffffffffffffffffffffffffffffffffffffffff1673ffffffffffffffffffffffffffffffffffffffff16815260200190815260200160002054815260200190815260200160002060070181905550600160008773ffffffffffffffffffffffffffffffffffffffff1673ffffffffffffffffffffffffffffffffffffffff1681526020019081526020016000206000600260008973ffffffffffffffffffffffffffffffffffffffff1673ffffffffffffffffffffffffffffffffffffffff16815260200190815260200160002054815260200190815260200160002060070154670de0b6b3a764000081151561076157fe5b043481151561076c57fe5b0492508573ffffffffffffffffffffffffffffffffffffffff167fbaa682830cade78a3affa9fa3c417095d0edb57605b0ac6fb487ce2068204ce933600260008a73ffffffffffffffffffffffffffffffffffffffff1673ffffffffffffffffffffffffffffffffffffffff16815260200190815260200160002054600160008b73ffffffffffffffffffffffffffffffffffffffff1673ffffffffffffffffffffffffffffffffffffffff1681526020019081526020016000206000600260008d73ffffffffffffffffffffffffffffffffffffffff1673ffffffffffffffffffffffffffffffffffffffff168152602001908152602001600020548152602001908152602001600020600701548734604051808673ffffffffffffffffffffffffffffffffffffffff1673ffffffffffffffffffffffffffffffffffffffff1681526020018581526020018481526020018381526020018281526020019550505050505060405180910390a26001935050505092915050565b6000828073ffffffffffffffffffffffffffffffffffffffff16637df73e27336000604051602001526040518263ffffffff167c0100000000000000000000000000000000000000000000000000000000028152600401808273ffffffffffffffffffffffffffffffffffffffff1673ffffffffffffffffffffffffffffffffffffffff168152602001915050602060405180830381600087803b151561098d57600080fd5b6102c65a03f1151561099e57600080fd5b5050506040518051905015156109b357600080fd5b60008473ffffffffffffffffffffffffffffffffffffffff166370a08231306000604051602001526040518263ffffffff167c0100000000000000000000000000000000000000000000000000000000028152600401808273ffffffffffffffffffffffffffffffffffffffff1673ffffffffffffffffffffffffffffffffffffffff168152602001915050602060405180830381600087803b1515610a5857600080fd5b6102c65a03f11515610a6957600080fd5b50505060405180519050111515610a7f57600080fd5b6001600260008673ffffffffffffffffffffffffffffffffffffffff1673ffffffffffffffffffffffffffffffffffffffff168152602001908152602001600020600082825401925050819055506203f4804201600160008673ffffffffffffffffffffffffffffffffffffffff1673ffffffffffffffffffffffffffffffffffffffff1681526020019081526020016000206000600260008873ffffffffffffffffffffffffffffffffffffffff1673ffffffffffffffffffffffffffffffffffffffff16815260200190815260200160002054815260200190815260200160002060000181905550620fd2004201600160008673ffffffffffffffffffffffffffffffffffffffff1673ffffffffffffffffffffffffffffffffffffffff1681526020019081526020016000206000600260008873ffffffffffffffffffffffffffffffffffffffff1673ffffffffffffffffffffffffffffffffffffffff168152602001908152602001600020548152602001908152602001600020600101819055508373ffffffffffffffffffffffffffffffffffffffff166370a08231306000604051602001526040518263ffffffff167c0100000000000000000000000000000000000000000000000000000000028152600401808273ffffffffffffffffffffffffffffffffffffffff1673ffffffffffffffffffffffffffffffffffffffff168152602001915050602060405180830381600087803b1515610ca857600080fd5b6102c65a03f11515610cb957600080fd5b50505060405180519050600160008673ffffffffffffffffffffffffffffffffffffffff1673ffffffffffffffffffffffffffffffffffffffff1681526020019081526020016000206000600260008873ffffffffffffffffffffffffffffffffffffffff1673ffffffffffffffffffffffffffffffffffffffff1681526020019081526020016000205481526020019081526020016000206003018190555082600160008673ffffffffffffffffffffffffffffffffffffffff1673ffffffffffffffffffffffffffffffffffffffff1681526020019081526020016000206000600260008873ffffffffffffffffffffffffffffffffffffffff1673ffffffffffffffffffffffffffffffffffffffff168152602001908152602001600020548152602001908152602001600020600401819055508373ffffffffffffffffffffffffffffffffffffffff167f955d916c6d8f36a8df9c2f549b36f718be9db50b59128d655195981d6bbf0db4600260008773ffffffffffffffffffffffffffffffffffffffff1673ffffffffffffffffffffffffffffffffffffffff16815260200190815260200160002054600160008873ffffffffffffffffffffffffffffffffffffffff1673ffffffffffffffffffffffffffffffffffffffff1681526020019081526020016000206000600260008a73ffffffffffffffffffffffffffffffffffffffff1673ffffffffffffffffffffffffffffffffffffffff16815260200190815260200160002054815260200190815260200160002060000154600160008973ffffffffffffffffffffffffffffffffffffffff1673ffffffffffffffffffffffffffffffffffffffff1681526020019081526020016000206000600260008b73ffffffffffffffffffffffffffffffffffffffff1673ffffffffffffffffffffffffffffffffffffffff16815260200190815260200160002054815260200190815260200160002060010154600160008a73ffffffffffffffffffffffffffffffffffffffff1673ffffffffffffffffffffffffffffffffffffffff1681526020019081526020016000206000600260008c73ffffffffffffffffffffffffffffffffffffffff1673ffffffffffffffffffffffffffffffffffffffff16815260200190815260200160002054815260200190815260200160002060030154600160008b73ffffffffffffffffffffffffffffffffffffffff1673ffffffffffffffffffffffffffffffffffffffff1681526020019081526020016000206000600260008d73ffffffffffffffffffffffffffffffffffffffff1673ffffffffffffffffffffffffffffffffffffffff16815260200190815260200160002054815260200190815260200160002060040154604051808681526020018581526020018481526020018381526020018281526020019550505050505060405180910390a2600191505092915050565b6000806000806000806000875111151561110657fe5b6000885111151561111357fe5b8751875114151561112057fe5b611129886111b6565b945060009350600092505b865183101561119c57878381518110151561114b57fe5b906020019060200201519150868381518110151561116557fe5b90602001906020020151905061118d84611188611182858561121f565b88611252565b61126d565b93508280600101935050611134565b6000841115156111a857fe5b839550505050505092915050565b60008060008084511115156111c757fe5b60009150600090505b8351811015611209576111fa8285838151811015156111eb57fe5b9060200190602002015161126d565b915080806001019150506111d0565b60008211151561121557fe5b8192505050919050565b60008082840290506000841480611240575082848281151561123d57fe5b04145b151561124857fe5b8091505092915050565b600080828481151561126057fe5b0490508091505092915050565b600080828401905083811015151561128157fe5b8091505092915050565b8154818355818115116112b2578183600052602060002091820191016112b191906112b7565b5b505050565b6112d991905b808211156112d55760008160009055506001016112bd565b5090565b905600a165627a7a72305820849d73df63b13d0abef949a0eb82f2f37f82121dbfba19becb5942e4737cf8c70029",
  "source": "pragma solidity ^0.4.15;\n\nimport './SafeMath.sol';\nimport './GitToken.sol';\nimport './Signed.sol';\n\ncontract GitTokenAuction is Signed {\n\n  using SafeMath for uint;\n  using SafeMath for uint[];\n\n  struct Auction {\n    uint startDate;\n    uint endDate;\n    uint lockDate;\n    uint tokensOffered;\n    uint initialPrice;\n    uint fundsCollected;\n    uint numBids;\n    uint wtdAvgPrice;\n    uint[] values;\n    uint[] prices;\n  }\n\n  mapping(address => mapping(uint => Auction)) auctions;\n  mapping(address => uint) rounds;\n\n  event NewAuction(\n    address indexed gittoken,\n    uint round,\n    uint startDate,\n    uint endDate,\n    uint tokensOffered,\n    uint initialPrice\n  );\n\n  event Bid(address indexed gittoken, address bidder, uint round, uint tokens, uint price, uint value);\n\n  function GitTokenAuction() Signed(msg.sender) public {}\n\n  function auction(address _gittoken, uint _minPrice) onlyGitTokenSigner(_gittoken) public returns(bool success) {\n      /*require(auctions[_gittoken][rounds[_gittoken]].endDate < now); //*/\n      require(GitToken(_gittoken).balanceOf(address(this)) > 0); // ensure contract has tokens to auction\n\n      rounds[_gittoken] += 1;\n\n      auctions[_gittoken][rounds[_gittoken]].startDate = now + 86400*3; // t+3 days\n      auctions[_gittoken][rounds[_gittoken]].endDate = now + 86400*12; // t+12 days\n      auctions[_gittoken][rounds[_gittoken]].tokensOffered = GitToken(_gittoken).balanceOf(address(this)); // currently held token balance\n      auctions[_gittoken][rounds[_gittoken]].initialPrice = _minPrice;\n\n      NewAuction(\n        _gittoken,\n        rounds[_gittoken],\n        auctions[_gittoken][rounds[_gittoken]].startDate,\n        auctions[_gittoken][rounds[_gittoken]].endDate,\n        auctions[_gittoken][rounds[_gittoken]].tokensOffered,\n        auctions[_gittoken][rounds[_gittoken]].initialPrice\n      );\n\n      return true;\n  }\n\n  function bid( address _gittoken, uint _price) payable validate(_gittoken, _price)\n    public returns(bool success)\n  {\n    auctions[_gittoken][rounds[_gittoken]].values.push(msg.value);\n    auctions[_gittoken][rounds[_gittoken]].prices.push(_price);\n\n    auctions[_gittoken][rounds[_gittoken]].wtdAvgPrice =\n      auctions[_gittoken][rounds[_gittoken]].values.wtdAvg(\n        auctions[_gittoken][rounds[_gittoken]].prices\n      );\n\n    uint tokens = (msg.value / (10**18 / auctions[_gittoken][rounds[_gittoken]].wtdAvgPrice));\n\n    Bid(_gittoken,\n      msg.sender,\n      rounds[_gittoken],\n      auctions[_gittoken][rounds[_gittoken]].wtdAvgPrice,\n      tokens,\n      msg.value\n    );\n\n    return true;\n  }\n\n  modifier validate(address _gittoken, uint _price) {\n      require(auctions[_gittoken][rounds[_gittoken]].startDate <= now); // ensure the start date as started\n      require(auctions[_gittoken][rounds[_gittoken]].endDate >= now); // ensure that the end date has not expired\n      require(msg.value >= _price && _price > 0);\n      _;\n  }\n\n  modifier onlyGitTokenSigner(address _gittoken) {\n      require(GitToken(_gittoken).isSigner(msg.sender));\n      _;\n  }\n\n}\n",
  "sourcePath": "/Users/ryan/Projects/GitToken/gittoken-contracts/contracts/GitTokenAuction.sol",
  "compiler": {
    "name": "solc",
    "version": "0.4.18+commit.9cf6e910.Emscripten.clang"
  },
  "schemaVersion": "1.0.1",
  "updatedAt": "2017-12-04T00:45:58.896Z"
}