{
  "contractName": "Registry",
  "abi": [
    {
      "constant": true,
      "inputs": [
        {
          "name": "_name",
          "type": "string"
        }
      ],
      "name": "getOrganization",
      "outputs": [
        {
          "name": "_orgName",
          "type": "string"
        },
        {
          "name": "_gittoken",
          "type": "address"
        },
        {
          "name": "_admin",
          "type": "address"
        },
        {
          "name": "_api",
          "type": "string"
        }
      ],
      "payable": false,
      "stateMutability": "view",
      "type": "function"
    },
    {
      "constant": true,
      "inputs": [
        {
          "name": "",
          "type": "address"
        }
      ],
      "name": "owner",
      "outputs": [
        {
          "name": "",
          "type": "bool"
        }
      ],
      "payable": false,
      "stateMutability": "view",
      "type": "function"
    },
    {
      "constant": false,
      "inputs": [
        {
          "name": "_name",
          "type": "string"
        },
        {
          "name": "_gittoken",
          "type": "address"
        },
        {
          "name": "_api",
          "type": "string"
        }
      ],
      "name": "registerOrganization",
      "outputs": [
        {
          "name": "success",
          "type": "bool"
        }
      ],
      "payable": true,
      "stateMutability": "payable",
      "type": "function"
    },
    {
      "constant": false,
      "inputs": [
        {
          "name": "newOwner",
          "type": "address"
        }
      ],
      "name": "transferOwnership",
      "outputs": [],
      "payable": false,
      "stateMutability": "nonpayable",
      "type": "function"
    },
    {
      "inputs": [
        {
          "name": "_registrationFee",
          "type": "uint256"
        }
      ],
      "payable": false,
      "stateMutability": "nonpayable",
      "type": "constructor"
    },
    {
      "anonymous": false,
      "inputs": [
        {
          "indexed": false,
          "name": "_name",
          "type": "string"
        },
        {
          "indexed": false,
          "name": "_gittoken",
          "type": "address"
        },
        {
          "indexed": false,
          "name": "_admin",
          "type": "address"
        },
        {
          "indexed": false,
          "name": "_api",
          "type": "string"
        }
      ],
      "name": "OrganizationRegistered",
      "type": "event"
    }
  ],
  "bytecode": "0x6060604052341561000f57600080fd5b604051602080610bd18339810160405280805190602001909190505060016000803373ffffffffffffffffffffffffffffffffffffffff1673ffffffffffffffffffffffffffffffffffffffff16815260200190815260200160002060006101000a81548160ff0219169083151502179055506000811161009757662386f26fc10000610099565b805b60028190555050610b22806100af6000396000f300606060405260043610610062576000357c0100000000000000000000000000000000000000000000000000000000900463ffffffff168063375aa7e214610067578063666e1b391461020f578063ade3d87914610260578063f2fde38b1461032c575b600080fd5b341561007257600080fd5b6100c2600480803590602001908201803590602001908080601f01602080910402602001604051908101604052809392919081815260200183838082843782019150505050505091905050610365565b60405180806020018573ffffffffffffffffffffffffffffffffffffffff1673ffffffffffffffffffffffffffffffffffffffff1681526020018473ffffffffffffffffffffffffffffffffffffffff1673ffffffffffffffffffffffffffffffffffffffff16815260200180602001838103835287818151815260200191508051906020019080838360005b8381101561016a57808201518184015260208101905061014f565b50505050905090810190601f1680156101975780820380516001836020036101000a031916815260200191505b50838103825284818151815260200191508051906020019080838360005b838110156101d05780820151818401526020810190506101b5565b50505050905090810190601f1680156101fd5780820380516001836020036101000a031916815260200191505b50965050505050505060405180910390f35b341561021a57600080fd5b610246600480803573ffffffffffffffffffffffffffffffffffffffff169060200190919050506105b0565b604051808215151515815260200191505060405180910390f35b610312600480803590602001908201803590602001908080601f0160208091040260200160405190810160405280939291908181526020018383808284378201915050505050509190803573ffffffffffffffffffffffffffffffffffffffff1690602001909190803590602001908201803590602001908080601f016020809104026020016040519081016040528093929190818152602001838380828437820191505050505050919050506105d0565b604051808215151515815260200191505060405180910390f35b341561033757600080fd5b610363600480803573ffffffffffffffffffffffffffffffffffffffff169060200190919050506108e2565b005b61036d610a3d565b600080610378610a3d565b846001866040518082805190602001908083835b6020831015156103b1578051825260208201915060208101905060208303925061038c565b6001836020036101000a038019825116818451168082178552505050505050905001915050908152602001604051809103902060020160009054906101000a900473ffffffffffffffffffffffffffffffffffffffff166001876040518082805190602001908083835b602083101515610440578051825260208201915060208101905060208303925061041b565b6001836020036101000a038019825116818451168082178552505050505050905001915050908152602001604051809103902060010160009054906101000a900473ffffffffffffffffffffffffffffffffffffffff166001886040518082805190602001908083835b6020831015156104cf57805182526020820191506020810190506020830392506104aa565b6001836020036101000a0380198251168184511680821785525050505050509050019150509081526020016040518091039020600001808054600181600116156101000203166002900480601f01602080910402602001604051908101604052809291908181526020018280546001816001161561010002031660029004801561059a5780601f1061056f5761010080835404028352916020019161059a565b820191906000526020600020905b81548152906001019060200180831161057d57829003601f168201915b5050505050905093509350935093509193509193565b60006020528060005260406000206000915054906101000a900460ff1681565b6000600254341415156105e257600080fd5b6080604051908101604052808381526020013373ffffffffffffffffffffffffffffffffffffffff1681526020018473ffffffffffffffffffffffffffffffffffffffff168152602001858152506001856040518082805190602001908083835b6020831015156106685780518252602082019150602081019050602083039250610643565b6001836020036101000a038019825116818451168082178552505050505050905001915050908152602001604051809103902060008201518160000190805190602001906106b7929190610a51565b5060208201518160010160006101000a81548173ffffffffffffffffffffffffffffffffffffffff021916908373ffffffffffffffffffffffffffffffffffffffff16021790555060408201518160020160006101000a81548173ffffffffffffffffffffffffffffffffffffffff021916908373ffffffffffffffffffffffffffffffffffffffff1602179055506060820151816003019080519060200190610762929190610a51565b509050507fdf471c4e7c658d88fb1f948ffad062aa194dbb3c4c3c3ab12881a0aab8f6305e8484338560405180806020018573ffffffffffffffffffffffffffffffffffffffff1673ffffffffffffffffffffffffffffffffffffffff1681526020018473ffffffffffffffffffffffffffffffffffffffff1673ffffffffffffffffffffffffffffffffffffffff16815260200180602001838103835287818151815260200191508051906020019080838360005b83811015610833578082015181840152602081019050610818565b50505050905090810190601f1680156108605780820380516001836020036101000a031916815260200191505b50838103825284818151815260200191508051906020019080838360005b8381101561089957808201518184015260208101905061087e565b50505050905090810190601f1680156108c65780820380516001836020036101000a031916815260200191505b50965050505050505060405180910390a1600190509392505050565b6000803373ffffffffffffffffffffffffffffffffffffffff1673ffffffffffffffffffffffffffffffffffffffff16815260200190815260200160002060009054906101000a900460ff16151561093957600080fd5b6000808273ffffffffffffffffffffffffffffffffffffffff1673ffffffffffffffffffffffffffffffffffffffff16815260200190815260200160002060009054906101000a900460ff161515610a3a5760016000808373ffffffffffffffffffffffffffffffffffffffff1673ffffffffffffffffffffffffffffffffffffffff16815260200190815260200160002060006101000a81548160ff02191690831515021790555060008060003373ffffffffffffffffffffffffffffffffffffffff1673ffffffffffffffffffffffffffffffffffffffff16815260200190815260200160002060006101000a81548160ff0219169083151502179055505b50565b602060405190810160405280600081525090565b828054600181600116156101000203166002900490600052602060002090601f016020900481019282601f10610a9257805160ff1916838001178555610ac0565b82800160010185558215610ac0579182015b82811115610abf578251825591602001919060010190610aa4565b5b509050610acd9190610ad1565b5090565b610af391905b80821115610aef576000816000905550600101610ad7565b5090565b905600a165627a7a7230582051cc3d79e80e621226538884bcaa62b11c039e5e52f97c420bed57ee7ffc02a60029",
  "source": "pragma solidity ^0.4.15;\n\n/*\n\nRequires a method for sending funds to another address after collecting\na registration fee.\n\n\n */\n\nimport './Ownable.sol';\n\ncontract Registry is Ownable {\n\n  struct Organization {\n    string api;\n    address admin;\n    address gittoken;\n    string name;\n  }\n\n  event OrganizationRegistered(\n    string _name,\n    address _gittoken,\n    address _admin,\n    string _api\n  );\n\n  mapping(string => Organization) organizations;\n  uint registrationFee;\n\n  function Registry(uint _registrationFee) public {\n    registrationFee = _registrationFee > 0 ? _registrationFee : 10**16; // 0.01 ETH\n  }\n\n  function registerOrganization(\n    string _name,\n    address _gittoken,\n    string _api\n  ) payable public returns (bool success) {\n    require(msg.value == registrationFee);\n\n    organizations[_name] = Organization({\n      api: _api,\n      admin: msg.sender,\n      gittoken: _gittoken,\n      name: _name\n    });\n\n    OrganizationRegistered(_name, _gittoken, msg.sender, _api);\n    return true;\n  }\n\n  function getOrganization(\n    string _name\n  ) constant public returns (\n    string _orgName,\n    address _gittoken,\n    address _admin,\n    string _api\n  ) {\n    return (\n      _name,\n      organizations[_name].gittoken,\n      organizations[_name].admin,\n      organizations[_name].api\n    );\n  }\n\n}\n",
  "sourcePath": "/Users/ryan/Projects/GitToken/gittoken-contracts/contracts/GitTokenRegistry.sol",
  "compiler": {
    "name": "solc",
    "version": "0.4.18+commit.9cf6e910.Emscripten.clang"
  },
  "schemaVersion": "1.0.1",
  "updatedAt": "2017-12-04T00:45:58.901Z"
}