{
  "contractName": "RewardPoints",
  "abi": [
    {
      "constant": true,
      "inputs": [
        {
          "name": "",
          "type": "address"
        }
      ],
      "name": "owner",
      "outputs": [
        {
          "name": "",
          "type": "bool"
        }
      ],
      "payable": false,
      "stateMutability": "view",
      "type": "function"
    },
    {
      "constant": false,
      "inputs": [
        {
          "name": "_event",
          "type": "string"
        },
        {
          "name": "_subtype",
          "type": "string"
        },
        {
          "name": "_rewardValue",
          "type": "uint256"
        },
        {
          "name": "_reserveValue",
          "type": "uint256"
        }
      ],
      "name": "setRewardDetails",
      "outputs": [
        {
          "name": "success",
          "type": "bool"
        }
      ],
      "payable": false,
      "stateMutability": "nonpayable",
      "type": "function"
    },
    {
      "constant": true,
      "inputs": [
        {
          "name": "_event",
          "type": "string"
        },
        {
          "name": "_subtype",
          "type": "string"
        }
      ],
      "name": "getRewardDetails",
      "outputs": [
        {
          "name": "_rewardValue",
          "type": "uint256"
        },
        {
          "name": "_reserveValue",
          "type": "uint256"
        }
      ],
      "payable": false,
      "stateMutability": "view",
      "type": "function"
    },
    {
      "constant": false,
      "inputs": [
        {
          "name": "newOwner",
          "type": "address"
        }
      ],
      "name": "transferOwnership",
      "outputs": [],
      "payable": false,
      "stateMutability": "nonpayable",
      "type": "function"
    },
    {
      "inputs": [
        {
          "name": "_decimals",
          "type": "uint256"
        }
      ],
      "payable": false,
      "stateMutability": "nonpayable",
      "type": "constructor"
    }
  ],
  "bytecode": "0x6060604052341561000f57600080fd5b6040516020806171bd8339810160405280805190602001909190505060016000803373ffffffffffffffffffffffffffffffffffffffff1673ffffffffffffffffffffffffffffffffffffffff16815260200190815260200160002060006101000a81548160ff02191690831515021790555080600381905550600354600a0a60fa02600160405180807f636f6d6d69745f636f6d6d656e74000000000000000000000000000000000000815250600e019050908152602001604051809103902060405180807f63726561746564000000000000000000000000000000000000000000000000008152506007019050908152602001604051809103902081905550600354600a0a6109c402600160405180807f63726561746500000000000000000000000000000000000000000000000000008152506006019050908152602001604051809103902060405180807f7265706f7369746f727900000000000000000000000000000000000000000000815250600a019050908152602001604051809103902081905550600354600a0a609602600160405180807f63726561746500000000000000000000000000000000000000000000000000008152506006019050908152602001604051809103902060405180807f6272616e636800000000000000000000000000000000000000000000000000008152506006019050908152602001604051809103902081905550600354600a0a609602600160405180807f63726561746500000000000000000000000000000000000000000000000000008152506006019050908152602001604051809103902060405180807f74616700000000000000000000000000000000000000000000000000000000008152506003019050908152602001604051809103902081905550600354600a0a600002600160405180807f64656c65746500000000000000000000000000000000000000000000000000008152506006019050908152602001604051809103902060405180807f6272616e636800000000000000000000000000000000000000000000000000008152506006019050908152602001604051809103902081905550600354600a0a600002600160405180807f64656c65746500000000000000000000000000000000000000000000000000008152506006019050908152602001604051809103902060405180807f74616700000000000000000000000000000000000000000000000000000000008152506003019050908152602001604051809103902081905550600354600a0a6103e802600160405180807f6465706c6f796d656e7400000000000000000000000000000000000000000000815250600a0190509081526020016040518091039020604051806000019050908152602001604051809103902081905550600354600a0a6101f402600160405180807f6465706c6f796d656e745f7374617475730000000000000000000000000000008152506011019050908152602001604051809103902060405180807f73756363657373000000000000000000000000000000000000000000000000008152506007019050908152602001604051809103902081905550600354600a0a600002600160405180807f6465706c6f796d656e745f7374617475730000000000000000000000000000008152506011019050908152602001604051809103902060405180807f70656e64696e67000000000000000000000000000000000000000000000000008152506007019050908152602001604051809103902081905550600354600a0a600002600160405180807f6465706c6f796d656e745f7374617475730000000000000000000000000000008152506011019050908152602001604051809103902060405180807f6661696c757265000000000000000000000000000000000000000000000000008152506007019050908152602001604051809103902081905550600354600a0a600002600160405180807f6465706c6f796d656e745f7374617475730000000000000000000000000000008152506011019050908152602001604051809103902060405180807f6572726f720000000000000000000000000000000000000000000000000000008152506005019050908152602001604051809103902081905550600354600a0a606402600160405180807f666f726b0000000000000000000000000000000000000000000000000000000081525060040190509081526020016040518091039020604051806000019050908152602001604051809103902081905550600354600a0a6101f402600160405180807f676f6c6c756d00000000000000000000000000000000000000000000000000008152506006019050908152602001604051809103902060405180807f63726561746564000000000000000000000000000000000000000000000000008152506007019050908152602001604051809103902081905550600354600a0a603202600160405180807f676f6c6c756d00000000000000000000000000000000000000000000000000008152506006019050908152602001604051809103902060405180807f65646974656400000000000000000000000000000000000000000000000000008152506006019050908152602001604051809103902081905550600354600a0a6103e802600160405180807f696e7374616c6c6174696f6e0000000000000000000000000000000000000000815250600c019050908152602001604051809103902060405180807f63726561746564000000000000000000000000000000000000000000000000008152506007019050908152602001604051809103902081905550600354600a0a600002600160405180807f696e7374616c6c6174696f6e0000000000000000000000000000000000000000815250600c019050908152602001604051809103902060405180807f64656c65746564000000000000000000000000000000000000000000000000008152506007019050908152602001604051809103902081905550600354600a0a6103e802600160405180807f696e7374616c6c6174696f6e5f7265706f7369746f72696573000000000000008152506019019050908152602001604051809103902060405180807f61646465640000000000000000000000000000000000000000000000000000008152506005019050908152602001604051809103902081905550600354600a0a600002600160405180807f696e7374616c6c6174696f6e5f7265706f7369746f72696573000000000000008152506019019050908152602001604051809103902060405180807f72656d6f766564000000000000000000000000000000000000000000000000008152506007019050908152602001604051809103902081905550600354600a0a6103e802600160405180807f6973737565735f636f6d6d656e74000000000000000000000000000000000000815250600e019050908152602001604051809103902060405180807f63726561746564000000000000000000000000000000000000000000000000008152506007019050908152602001604051809103902081905550600354600a0a60fa02600160405180807f6973737565735f636f6d6d656e74000000000000000000000000000000000000815250600e019050908152602001604051809103902060405180807f65646974656400000000000000000000000000000000000000000000000000008152506006019050908152602001604051809103902081905550600354600a0a600002600160405180807f6973737565735f636f6d6d656e74000000000000000000000000000000000000815250600e019050908152602001604051809103902060405180807f64656c65746564000000000000000000000000000000000000000000000000008152506007019050908152602001604051809103902081905550600354600a0a606402600160405180807f69737375657300000000000000000000000000000000000000000000000000008152506006019050908152602001604051809103902060405180807f61737369676e65640000000000000000000000000000000000000000000000008152506008019050908152602001604051809103902081905550600354600a0a600002600160405180807f69737375657300000000000000000000000000000000000000000000000000008152506006019050908152602001604051809103902060405180807f756e61737369676e656400000000000000000000000000000000000000000000815250600a019050908152602001604051809103902081905550600354600a0a603202600160405180807f69737375657300000000000000000000000000000000000000000000000000008152506006019050908152602001604051809103902060405180807f6c6162656c6564000000000000000000000000000000000000000000000000008152506007019050908152602001604051809103902081905550600354600a0a600002600160405180807f69737375657300000000000000000000000000000000000000000000000000008152506006019050908152602001604051809103902060405180807f756e6c6162656c656400000000000000000000000000000000000000000000008152506009019050908152602001604051809103902081905550600354600a0a6101f402600160405180807f69737375657300000000000000000000000000000000000000000000000000008152506006019050908152602001604051809103902060405180807f6f70656e656400000000000000000000000000000000000000000000000000008152506006019050908152602001604051809103902081905550600354600a0a606402600160405180807f69737375657300000000000000000000000000000000000000000000000000008152506006019050908152602001604051809103902060405180807f65646974656400000000000000000000000000000000000000000000000000008152506006019050908152602001604051809103902081905550600354600a0a603202600160405180807f69737375657300000000000000000000000000000000000000000000000000008152506006019050908152602001604051809103902060405180807f6d696c6573746f6e656400000000000000000000000000000000000000000000815250600a019050908152602001604051809103902081905550600354600a0a600002600160405180807f69737375657300000000000000000000000000000000000000000000000000008152506006019050908152602001604051809103902060405180807f64656d696c6573746f6e65640000000000000000000000000000000000000000815250600c019050908152602001604051809103902081905550600354600a0a6101f402600160405180807f69737375657300000000000000000000000000000000000000000000000000008152506006019050908152602001604051809103902060405180807f636c6f73656400000000000000000000000000000000000000000000000000008152506006019050908152602001604051809103902081905550600354600a0a609602600160405180807f69737375657300000000000000000000000000000000000000000000000000008152506006019050908152602001604051809103902060405180807f72656f70656e65640000000000000000000000000000000000000000000000008152506008019050908152602001604051809103902081905550600354600a0a606402600160405180807f6c6162656c0000000000000000000000000000000000000000000000000000008152506005019050908152602001604051809103902060405180807f63726561746564000000000000000000000000000000000000000000000000008152506007019050908152602001604051809103902081905550600354600a0a603202600160405180807f6c6162656c0000000000000000000000000000000000000000000000000000008152506005019050908152602001604051809103902060405180807f65646974656400000000000000000000000000000000000000000000000000008152506006019050908152602001604051809103902081905550600354600a0a600002600160405180807f6c6162656c0000000000000000000000000000000000000000000000000000008152506005019050908152602001604051809103902060405180807f64656c65746564000000000000000000000000000000000000000000000000008152506007019050908152602001604051809103902081905550600354600a0a6103e802600160405180807f6d61726b6574706c6163655f70757263686173650000000000000000000000008152506014019050908152602001604051809103902060405180807f70757263686173656400000000000000000000000000000000000000000000008152506009019050908152602001604051809103902081905550600354600a0a600002600160405180807f6d61726b6574706c6163655f70757263686173650000000000000000000000008152506014019050908152602001604051809103902060405180807f63616e63656c6c656400000000000000000000000000000000000000000000008152506009019050908152602001604051809103902081905550600354600a0a60fa02600160405180807f6d61726b6574706c6163655f70757263686173650000000000000000000000008152506014019050908152602001604051809103902060405180807f6368616e676564000000000000000000000000000000000000000000000000008152506007019050908152602001604051809103902081905550600354600a0a6103e802600160405180807f6d656d62657200000000000000000000000000000000000000000000000000008152506006019050908152602001604051809103902060405180807f61646465640000000000000000000000000000000000000000000000000000008152506005019050908152602001604051809103902081905550600354600a0a600002600160405180807f6d656d62657200000000000000000000000000000000000000000000000000008152506006019050908152602001604051809103902060405180807f64656c65746564000000000000000000000000000000000000000000000000008152506007019050908152602001604051809103902081905550600354600a0a60fa02600160405180807f6d656d62657200000000000000000000000000000000000000000000000000008152506006019050908152602001604051809103902060405180807f65646974656400000000000000000000000000000000000000000000000000008152506006019050908152602001604051809103902081905550600354600a0a6101f402600160405180807f6d656d6265727368697000000000000000000000000000000000000000000000815250600a019050908152602001604051809103902060405180807f61646465640000000000000000000000000000000000000000000000000000008152506005019050908152602001604051809103902081905550600354600a0a600002600160405180807f6d656d6265727368697000000000000000000000000000000000000000000000815250600a019050908152602001604051809103902060405180807f72656d6f766564000000000000000000000000000000000000000000000000008152506007019050908152602001604051809103902081905550600354600a0a6101f402600160405180807f6d696c6573746f6e6500000000000000000000000000000000000000000000008152506009019050908152602001604051809103902060405180807f63726561746564000000000000000000000000000000000000000000000000008152506007019050908152602001604051809103902081905550600354600a0a6101f402600160405180807f6d696c6573746f6e6500000000000000000000000000000000000000000000008152506009019050908152602001604051809103902060405180807f636c6f73656400000000000000000000000000000000000000000000000000008152506006019050908152602001604051809103902081905550600354600a0a6101f402600160405180807f6d696c6573746f6e6500000000000000000000000000000000000000000000008152506009019050908152602001604051809103902060405180807f6f70656e656400000000000000000000000000000000000000000000000000008152506006019050908152602001604051809103902081905550600354600a0a606402600160405180807f6d696c6573746f6e6500000000000000000000000000000000000000000000008152506009019050908152602001604051809103902060405180807f65646974656400000000000000000000000000000000000000000000000000008152506006019050908152602001604051809103902081905550600354600a0a600002600160405180807f6d696c6573746f6e6500000000000000000000000000000000000000000000008152506009019050908152602001604051809103902060405180807f64656c65746564000000000000000000000000000000000000000000000000008152506007019050908152602001604051809103902081905550600354600a0a6103e802600160405180807f6f7267616e697a6174696f6e0000000000000000000000000000000000000000815250600c019050908152602001604051809103902060405180807f6d656d6265725f61646465640000000000000000000000000000000000000000815250600c019050908152602001604051809103902081905550600354600a0a600002600160405180807f6f7267616e697a6174696f6e0000000000000000000000000000000000000000815250600c019050908152602001604051809103902060405180807f6d656d6265725f72656d6f766564000000000000000000000000000000000000815250600e019050908152602001604051809103902081905550600354600a0a6103e802600160405180807f6f7267616e697a6174696f6e0000000000000000000000000000000000000000815250600c019050908152602001604051809103902060405180807f6d656d6265725f696e7669746564000000000000000000000000000000000000815250600e019050908152602001604051809103902081905550600354600a0a600002600160405180807f6f72675f626c6f636b00000000000000000000000000000000000000000000008152506009019050908152602001604051809103902060405180807f626c6f636b6564000000000000000000000000000000000000000000000000008152506007019050908152602001604051809103902081905550600354600a0a600002600160405180807f6f72675f626c6f636b00000000000000000000000000000000000000000000008152506009019050908152602001604051809103902060405180807f756e626c6f636b656400000000000000000000000000000000000000000000008152506009019050908152602001604051809103902081905550600354600a0a6109c402600160405180807f706167655f6275696c6400000000000000000000000000000000000000000000815250600a019050908152602001604051809103902060405180807f6275696c740000000000000000000000000000000000000000000000000000008152506005019050908152602001604051809103902081905550600354600a0a603202600160405180807f70726f6a6563745f636172640000000000000000000000000000000000000000815250600c019050908152602001604051809103902060405180807f63726561746564000000000000000000000000000000000000000000000000008152506007019050908152602001604051809103902081905550600354600a0a601902600160405180807f70726f6a6563745f636172640000000000000000000000000000000000000000815250600c019050908152602001604051809103902060405180807f65646974656400000000000000000000000000000000000000000000000000008152506006019050908152602001604051809103902081905550600354600a0a601902600160405180807f70726f6a6563745f636172640000000000000000000000000000000000000000815250600c019050908152602001604051809103902060405180807f636f6e76657274656400000000000000000000000000000000000000000000008152506009019050908152602001604051809103902081905550600354600a0a600f02600160405180807f70726f6a6563745f636172640000000000000000000000000000000000000000815250600c019050908152602001604051809103902060405180807f6d6f7665640000000000000000000000000000000000000000000000000000008152506005019050908152602001604051809103902081905550600354600a0a600002600160405180807f70726f6a6563745f636172640000000000000000000000000000000000000000815250600c019050908152602001604051809103902060405180807f64656c65746564000000000000000000000000000000000000000000000000008152506007019050908152602001604051809103902081905550600354600a0a603202600160405180807f70726f6a6563745f636f6c756d6e000000000000000000000000000000000000815250600e019050908152602001604051809103902060405180807f63726561746564000000000000000000000000000000000000000000000000008152506007019050908152602001604051809103902081905550600354600a0a601902600160405180807f70726f6a6563745f636f6c756d6e000000000000000000000000000000000000815250600e019050908152602001604051809103902060405180807f65646974656400000000000000000000000000000000000000000000000000008152506006019050908152602001604051809103902081905550600354600a0a600f02600160405180807f70726f6a6563745f636f6c756d6e000000000000000000000000000000000000815250600e019050908152602001604051809103902060405180807f6d6f7665640000000000000000000000000000000000000000000000000000008152506005019050908152602001604051809103902081905550600354600a0a600002600160405180807f70726f6a6563745f636f6c756d6e000000000000000000000000000000000000815250600e019050908152602001604051809103902060405180807f64656c65746564000000000000000000000000000000000000000000000000008152506007019050908152602001604051809103902081905550600354600a0a6109c402600160405180807f70726f6a656374000000000000000000000000000000000000000000000000008152506007019050908152602001604051809103902060405180807f63726561746564000000000000000000000000000000000000000000000000008152506007019050908152602001604051809103902081905550600354600a0a606402600160405180807f70726f6a656374000000000000000000000000000000000000000000000000008152506007019050908152602001604051809103902060405180807f65646974656400000000000000000000000000000000000000000000000000008152506006019050908152602001604051809103902081905550600354600a0a6101f402600160405180807f70726f6a656374000000000000000000000000000000000000000000000000008152506007019050908152602001604051809103902060405180807f636c6f73656400000000000000000000000000000000000000000000000000008152506006019050908152602001604051809103902081905550600354600a0a606402600160405180807f70726f6a656374000000000000000000000000000000000000000000000000008152506007019050908152602001604051809103902060405180807f72656f70656e65640000000000000000000000000000000000000000000000008152506008019050908152602001604051809103902081905550600354600a0a60fa02600160405180807f70756c6c5f726571756573745f7265766965775f636f6d6d656e740000000000815250601b019050908152602001604051809103902060405180807f63726561746564000000000000000000000000000000000000000000000000008152506007019050908152602001604051809103902081905550600354600a0a606402600160405180807f70756c6c5f726571756573745f7265766965775f636f6d6d656e740000000000815250601b019050908152602001604051809103902060405180807f65646974656400000000000000000000000000000000000000000000000000008152506006019050908152602001604051809103902081905550600354600a0a600002600160405180807f70756c6c5f726571756573745f7265766965775f636f6d6d656e740000000000815250601b019050908152602001604051809103902060405180807f64656c65746564000000000000000000000000000000000000000000000000008152506007019050908152602001604051809103902081905550600354600a0a60fa02600160405180807f70756c6c5f726571756573745f726576696577000000000000000000000000008152506013019050908152602001604051809103902060405180807f7375626d697474656400000000000000000000000000000000000000000000008152506009019050908152602001604051809103902081905550600354600a0a606402600160405180807f70756c6c5f726571756573745f726576696577000000000000000000000000008152506013019050908152602001604051809103902060405180807f65646974656400000000000000000000000000000000000000000000000000008152506006019050908152602001604051809103902081905550600354600a0a606402600160405180807f70756c6c5f726571756573745f726576696577000000000000000000000000008152506013019050908152602001604051809103902060405180807f6469736d697373656400000000000000000000000000000000000000000000008152506009019050908152602001604051809103902081905550600354600a0a606402600160405180807f70756c6c5f726571756573740000000000000000000000000000000000000000815250600c019050908152602001604051809103902060405180807f61737369676e65640000000000000000000000000000000000000000000000008152506008019050908152602001604051809103902081905550600354600a0a600002600160405180807f70756c6c5f726571756573740000000000000000000000000000000000000000815250600c019050908152602001604051809103902060405180807f756e61737369676e656400000000000000000000000000000000000000000000815250600a019050908152602001604051809103902081905550600354600a0a606402600160405180807f70756c6c5f726571756573740000000000000000000000000000000000000000815250600c019050908152602001604051809103902060405180807f7265766965775f726571756573746564000000000000000000000000000000008152506010019050908152602001604051809103902081905550600354600a0a600002600160405180807f70756c6c5f726571756573740000000000000000000000000000000000000000815250600c019050908152602001604051809103902060405180807f7265766965775f726571756573745f72656d6f766564000000000000000000008152506016019050908152602001604051809103902081905550600354600a0a603202600160405180807f70756c6c5f726571756573740000000000000000000000000000000000000000815250600c019050908152602001604051809103902060405180807f6c6162656c6564000000000000000000000000000000000000000000000000008152506007019050908152602001604051809103902081905550600354600a0a600002600160405180807f70756c6c5f726571756573740000000000000000000000000000000000000000815250600c019050908152602001604051809103902060405180807f756e6c6162656c656400000000000000000000000000000000000000000000008152506009019050908152602001604051809103902081905550600354600a0a606402600160405180807f70756c6c5f726571756573740000000000000000000000000000000000000000815250600c019050908152602001604051809103902060405180807f6f70656e656400000000000000000000000000000000000000000000000000008152506006019050908152602001604051809103902081905550600354600a0a603202600160405180807f70756c6c5f726571756573740000000000000000000000000000000000000000815250600c019050908152602001604051809103902060405180807f65646974656400000000000000000000000000000000000000000000000000008152506006019050908152602001604051809103902081905550600354600a0a606402600160405180807f70756c6c5f726571756573740000000000000000000000000000000000000000815250600c019050908152602001604051809103902060405180807f636c6f73656400000000000000000000000000000000000000000000000000008152506006019050908152602001604051809103902081905550600354600a0a600f02600160405180807f70756c6c5f726571756573740000000000000000000000000000000000000000815250600c019050908152602001604051809103902060405180807f72656f70656e65640000000000000000000000000000000000000000000000008152506008019050908152602001604051809103902081905550600354600a0a609602600160405180807f70756c6c5f726571756573740000000000000000000000000000000000000000815250600c019050908152602001604051809103902060405180807f73796e6368726f6e697a65000000000000000000000000000000000000000000815250600b019050908152602001604051809103902081905550600354600a0a6109c402600160405180807f70696e670000000000000000000000000000000000000000000000000000000081525060040190509081526020016040518091039020604051806000019050908152602001604051809103902081905550600354600a0a60fa02600160405180807f707573680000000000000000000000000000000000000000000000000000000081525060040190509081526020016040518091039020604051806000019050908152602001604051809103902081905550600354600a0a61138802600160405180807f72656c65617365000000000000000000000000000000000000000000000000008152506007019050908152602001604051809103902060405180807f7075626c697368656400000000000000000000000000000000000000000000008152506009019050908152602001604051809103902081905550600354600a0a6103e802600160405180807f7265706f7369746f727900000000000000000000000000000000000000000000815250600a019050908152602001604051809103902060405180807f63726561746564000000000000000000000000000000000000000000000000008152506007019050908152602001604051809103902081905550600354600a0a600002600160405180807f7265706f7369746f727900000000000000000000000000000000000000000000815250600a019050908152602001604051809103902060405180807f64656c65746564000000000000000000000000000000000000000000000000008152506007019050908152602001604051809103902081905550600354600a0a6109c402600160405180807f7265706f7369746f727900000000000000000000000000000000000000000000815250600a019050908152602001604051809103902060405180807f7075626c6963697a656400000000000000000000000000000000000000000000815250600a019050908152602001604051809103902081905550600354600a0a600002600160405180807f7265706f7369746f727900000000000000000000000000000000000000000000815250600a019050908152602001604051809103902060405180807f707269766174697a656400000000000000000000000000000000000000000000815250600a019050908152602001604051809103902081905550600354600a0a600002600160405180807f73746174757300000000000000000000000000000000000000000000000000008152506006019050908152602001604051809103902060405180807f70656e64696e67000000000000000000000000000000000000000000000000008152506007019050908152602001604051809103902081905550600354600a0a6101f402600160405180807f73746174757300000000000000000000000000000000000000000000000000008152506006019050908152602001604051809103902060405180807f73756363657373000000000000000000000000000000000000000000000000008152506007019050908152602001604051809103902081905550600354600a0a600002600160405180807f73746174757300000000000000000000000000000000000000000000000000008152506006019050908152602001604051809103902060405180807f6661696c757265000000000000000000000000000000000000000000000000008152506007019050908152602001604051809103902081905550600354600a0a600002600160405180807f73746174757300000000000000000000000000000000000000000000000000008152506006019050908152602001604051809103902060405180807f6572726f720000000000000000000000000000000000000000000000000000008152506005019050908152602001604051809103902081905550600354600a0a6103e802600160405180807f7465616d000000000000000000000000000000000000000000000000000000008152506004019050908152602001604051809103902060405180807f63726561746564000000000000000000000000000000000000000000000000008152506007019050908152602001604051809103902081905550600354600a0a600002600160405180807f7465616d000000000000000000000000000000000000000000000000000000008152506004019050908152602001604051809103902060405180807f64656c65746564000000000000000000000000000000000000000000000000008152506007019050908152602001604051809103902081905550600354600a0a606402600160405180807f7465616d000000000000000000000000000000000000000000000000000000008152506004019050908152602001604051809103902060405180807f65646974656400000000000000000000000000000000000000000000000000008152506006019050908152602001604051809103902081905550600354600a0a606402600160405180807f7465616d000000000000000000000000000000000000000000000000000000008152506004019050908152602001604051809103902060405180807f61646465645f746f5f7265706f7369746f7279000000000000000000000000008152506013019050908152602001604051809103902081905550600354600a0a600002600160405180807f7465616d000000000000000000000000000000000000000000000000000000008152506004019050908152602001604051809103902060405180807f72656d6f7665645f66726f6d5f7265706f7369746f72790000000000000000008152506017019050908152602001604051809103902081905550600354600a0a6103e802600160405180807f7465616d5f61646400000000000000000000000000000000000000000000000081525060080190509081526020016040518091039020604051806000019050908152602001604051809103902081905550600354600a0a6101f402600160405180807f77617463680000000000000000000000000000000000000000000000000000008152506005019050908152602001604051809103902060405180807f73746172746564000000000000000000000000000000000000000000000000008152506007019050908152602001604051809103902081905550600354600a0a600002600260405180807f636f6d6d69745f636f6d6d656e74000000000000000000000000000000000000815250600e019050908152602001604051809103902060405180807f63726561746564000000000000000000000000000000000000000000000000008152506007019050908152602001604051809103902081905550600354600a0a6101f402600260405180807f63726561746500000000000000000000000000000000000000000000000000008152506006019050908152602001604051809103902060405180807f7265706f7369746f727900000000000000000000000000000000000000000000815250600a019050908152602001604051809103902081905550600354600a0a600002600260405180807f63726561746500000000000000000000000000000000000000000000000000008152506006019050908152602001604051809103902060405180807f6272616e636800000000000000000000000000000000000000000000000000008152506006019050908152602001604051809103902081905550600354600a0a600002600260405180807f63726561746500000000000000000000000000000000000000000000000000008152506006019050908152602001604051809103902060405180807f74616700000000000000000000000000000000000000000000000000000000008152506003019050908152602001604051809103902081905550600354600a0a600002600260405180807f64656c65746500000000000000000000000000000000000000000000000000008152506006019050908152602001604051809103902060405180807f6272616e636800000000000000000000000000000000000000000000000000008152506006019050908152602001604051809103902081905550600354600a0a600002600260405180807f64656c65746500000000000000000000000000000000000000000000000000008152506006019050908152602001604051809103902060405180807f74616700000000000000000000000000000000000000000000000000000000008152506003019050908152602001604051809103902081905550600354600a0a600002600260405180807f6465706c6f796d656e7400000000000000000000000000000000000000000000815250600a0190509081526020016040518091039020604051806000019050908152602001604051809103902081905550600354600a0a600002600260405180807f6465706c6f796d656e745f7374617475730000000000000000000000000000008152506011019050908152602001604051809103902060405180807f73756363657373000000000000000000000000000000000000000000000000008152506007019050908152602001604051809103902081905550600354600a0a600002600260405180807f6465706c6f796d656e745f7374617475730000000000000000000000000000008152506011019050908152602001604051809103902060405180807f70656e64696e67000000000000000000000000000000000000000000000000008152506007019050908152602001604051809103902081905550600354600a0a600002600260405180807f6465706c6f796d656e745f7374617475730000000000000000000000000000008152506011019050908152602001604051809103902060405180807f6661696c757265000000000000000000000000000000000000000000000000008152506007019050908152602001604051809103902081905550600354600a0a600002600260405180807f6465706c6f796d656e745f7374617475730000000000000000000000000000008152506011019050908152602001604051809103902060405180807f6572726f720000000000000000000000000000000000000000000000000000008152506005019050908152602001604051809103902081905550600354600a0a6103e802600260405180807f666f726b0000000000000000000000000000000000000000000000000000000081525060040190509081526020016040518091039020604051806000019050908152602001604051809103902081905550600354600a0a600002600260405180807f676f6c6c756d00000000000000000000000000000000000000000000000000008152506006019050908152602001604051809103902060405180807f63726561746564000000000000000000000000000000000000000000000000008152506007019050908152602001604051809103902081905550600354600a0a600002600260405180807f676f6c6c756d00000000000000000000000000000000000000000000000000008152506006019050908152602001604051809103902060405180807f65646974656400000000000000000000000000000000000000000000000000008152506006019050908152602001604051809103902081905550600354600a0a600002600260405180807f696e7374616c6c6174696f6e0000000000000000000000000000000000000000815250600c019050908152602001604051809103902060405180807f63726561746564000000000000000000000000000000000000000000000000008152506007019050908152602001604051809103902081905550600354600a0a600002600260405180807f696e7374616c6c6174696f6e0000000000000000000000000000000000000000815250600c019050908152602001604051809103902060405180807f64656c65746564000000000000000000000000000000000000000000000000008152506007019050908152602001604051809103902081905550600354600a0a600002600260405180807f696e7374616c6c6174696f6e5f7265706f7369746f72696573000000000000008152506019019050908152602001604051809103902060405180807f61646465640000000000000000000000000000000000000000000000000000008152506005019050908152602001604051809103902081905550600354600a0a600002600260405180807f696e7374616c6c6174696f6e5f7265706f7369746f72696573000000000000008152506019019050908152602001604051809103902060405180807f72656d6f766564000000000000000000000000000000000000000000000000008152506007019050908152602001604051809103902081905550600354600a0a600002600260405180807f6973737565735f636f6d6d656e74000000000000000000000000000000000000815250600e019050908152602001604051809103902060405180807f63726561746564000000000000000000000000000000000000000000000000008152506007019050908152602001604051809103902081905550600354600a0a600002600260405180807f6973737565735f636f6d6d656e74000000000000000000000000000000000000815250600e019050908152602001604051809103902060405180807f65646974656400000000000000000000000000000000000000000000000000008152506006019050908152602001604051809103902081905550600354600a0a600002600260405180807f6973737565735f636f6d6d656e74000000000000000000000000000000000000815250600e019050908152602001604051809103902060405180807f64656c65746564000000000000000000000000000000000000000000000000008152506007019050908152602001604051809103902081905550600354600a0a600002600260405180807f69737375657300000000000000000000000000000000000000000000000000008152506006019050908152602001604051809103902060405180807f61737369676e65640000000000000000000000000000000000000000000000008152506008019050908152602001604051809103902081905550600354600a0a600002600260405180807f69737375657300000000000000000000000000000000000000000000000000008152506006019050908152602001604051809103902060405180807f756e61737369676e656400000000000000000000000000000000000000000000815250600a019050908152602001604051809103902081905550600354600a0a600002600260405180807f69737375657300000000000000000000000000000000000000000000000000008152506006019050908152602001604051809103902060405180807f6c6162656c6564000000000000000000000000000000000000000000000000008152506007019050908152602001604051809103902081905550600354600a0a600002600260405180807f69737375657300000000000000000000000000000000000000000000000000008152506006019050908152602001604051809103902060405180807f756e6c6162656c656400000000000000000000000000000000000000000000008152506009019050908152602001604051809103902081905550600354600a0a600002600260405180807f69737375657300000000000000000000000000000000000000000000000000008152506006019050908152602001604051809103902060405180807f6f70656e656400000000000000000000000000000000000000000000000000008152506006019050908152602001604051809103902081905550600354600a0a600002600260405180807f69737375657300000000000000000000000000000000000000000000000000008152506006019050908152602001604051809103902060405180807f65646974656400000000000000000000000000000000000000000000000000008152506006019050908152602001604051809103902081905550600354600a0a600002600260405180807f69737375657300000000000000000000000000000000000000000000000000008152506006019050908152602001604051809103902060405180807f6d696c6573746f6e656400000000000000000000000000000000000000000000815250600a019050908152602001604051809103902081905550600354600a0a600002600260405180807f69737375657300000000000000000000000000000000000000000000000000008152506006019050908152602001604051809103902060405180807f64656d696c6573746f6e65640000000000000000000000000000000000000000815250600c019050908152602001604051809103902081905550600354600a0a600002600260405180807f69737375657300000000000000000000000000000000000000000000000000008152506006019050908152602001604051809103902060405180807f636c6f73656400000000000000000000000000000000000000000000000000008152506006019050908152602001604051809103902081905550600354600a0a600002600260405180807f69737375657300000000000000000000000000000000000000000000000000008152506006019050908152602001604051809103902060405180807f72656f70656e65640000000000000000000000000000000000000000000000008152506008019050908152602001604051809103902081905550600354600a0a600002600260405180807f6c6162656c0000000000000000000000000000000000000000000000000000008152506005019050908152602001604051809103902060405180807f63726561746564000000000000000000000000000000000000000000000000008152506007019050908152602001604051809103902081905550600354600a0a600002600260405180807f6c6162656c0000000000000000000000000000000000000000000000000000008152506005019050908152602001604051809103902060405180807f65646974656400000000000000000000000000000000000000000000000000008152506006019050908152602001604051809103902081905550600354600a0a600002600260405180807f6c6162656c0000000000000000000000000000000000000000000000000000008152506005019050908152602001604051809103902060405180807f64656c65746564000000000000000000000000000000000000000000000000008152506007019050908152602001604051809103902081905550600354600a0a600002600260405180807f6d61726b6574706c6163655f70757263686173650000000000000000000000008152506014019050908152602001604051809103902060405180807f70757263686173656400000000000000000000000000000000000000000000008152506009019050908152602001604051809103902081905550600354600a0a600002600260405180807f6d61726b6574706c6163655f70757263686173650000000000000000000000008152506014019050908152602001604051809103902060405180807f63616e63656c6c656400000000000000000000000000000000000000000000008152506009019050908152602001604051809103902081905550600354600a0a600002600260405180807f6d61726b6574706c6163655f70757263686173650000000000000000000000008152506014019050908152602001604051809103902060405180807f6368616e676564000000000000000000000000000000000000000000000000008152506007019050908152602001604051809103902081905550600354600a0a600002600260405180807f6d656d62657200000000000000000000000000000000000000000000000000008152506006019050908152602001604051809103902060405180807f61646465640000000000000000000000000000000000000000000000000000008152506005019050908152602001604051809103902081905550600354600a0a600002600260405180807f6d656d62657200000000000000000000000000000000000000000000000000008152506006019050908152602001604051809103902060405180807f64656c65746564000000000000000000000000000000000000000000000000008152506007019050908152602001604051809103902081905550600354600a0a600002600260405180807f6d656d62657200000000000000000000000000000000000000000000000000008152506006019050908152602001604051809103902060405180807f65646974656400000000000000000000000000000000000000000000000000008152506006019050908152602001604051809103902081905550600354600a0a600002600260405180807f6d656d6265727368697000000000000000000000000000000000000000000000815250600a019050908152602001604051809103902060405180807f61646465640000000000000000000000000000000000000000000000000000008152506005019050908152602001604051809103902081905550600354600a0a600002600260405180807f6d656d6265727368697000000000000000000000000000000000000000000000815250600a019050908152602001604051809103902060405180807f72656d6f766564000000000000000000000000000000000000000000000000008152506007019050908152602001604051809103902081905550600354600a0a600002600260405180807f6d696c6573746f6e6500000000000000000000000000000000000000000000008152506009019050908152602001604051809103902060405180807f63726561746564000000000000000000000000000000000000000000000000008152506007019050908152602001604051809103902081905550600354600a0a613a9802600260405180807f6d696c6573746f6e6500000000000000000000000000000000000000000000008152506009019050908152602001604051809103902060405180807f636c6f73656400000000000000000000000000000000000000000000000000008152506006019050908152602001604051809103902081905550600354600a0a600002600260405180807f6d696c6573746f6e6500000000000000000000000000000000000000000000008152506009019050908152602001604051809103902060405180807f6f70656e656400000000000000000000000000000000000000000000000000008152506006019050908152602001604051809103902081905550600354600a0a600002600260405180807f6d696c6573746f6e6500000000000000000000000000000000000000000000008152506009019050908152602001604051809103902060405180807f65646974656400000000000000000000000000000000000000000000000000008152506006019050908152602001604051809103902081905550600354600a0a600002600260405180807f6d696c6573746f6e6500000000000000000000000000000000000000000000008152506009019050908152602001604051809103902060405180807f64656c65746500000000000000000000000000000000000000000000000000008152506006019050908152602001604051809103902081905550600354600a0a613a9802600260405180807f6f7267616e697a6174696f6e0000000000000000000000000000000000000000815250600c019050908152602001604051809103902060405180807f6d656d6265725f61646465640000000000000000000000000000000000000000815250600c019050908152602001604051809103902081905550600354600a0a600002600260405180807f6f7267616e697a6174696f6e0000000000000000000000000000000000000000815250600c019050908152602001604051809103902060405180807f6d656d6265725f72656d6f766564000000000000000000000000000000000000815250600e019050908152602001604051809103902081905550600354600a0a600002600260405180807f6f7267616e697a6174696f6e0000000000000000000000000000000000000000815250600c019050908152602001604051809103902060405180807f6d656d6265725f696e7669746564000000000000000000000000000000000000815250600e019050908152602001604051809103902081905550600354600a0a600002600260405180807f6f72675f626c6f636b00000000000000000000000000000000000000000000008152506009019050908152602001604051809103902060405180807f626c6f636b6564000000000000000000000000000000000000000000000000008152506007019050908152602001604051809103902081905550600354600a0a600002600260405180807f6f72675f626c6f636b00000000000000000000000000000000000000000000008152506009019050908152602001604051809103902060405180807f756e626c6f636b656400000000000000000000000000000000000000000000008152506009019050908152602001604051809103902081905550600354600a0a600002600260405180807f706167655f6275696c6400000000000000000000000000000000000000000000815250600a019050908152602001604051809103902060405180807f6275696c740000000000000000000000000000000000000000000000000000008152506005019050908152602001604051809103902081905550600354600a0a600002600260405180807f70726f6a6563745f636172640000000000000000000000000000000000000000815250600c019050908152602001604051809103902060405180807f63726561746564000000000000000000000000000000000000000000000000008152506007019050908152602001604051809103902081905550600354600a0a600002600260405180807f70726f6a6563745f636172640000000000000000000000000000000000000000815250600c019050908152602001604051809103902060405180807f65646974656400000000000000000000000000000000000000000000000000008152506006019050908152602001604051809103902081905550600354600a0a600002600260405180807f70726f6a6563745f636172640000000000000000000000000000000000000000815250600c019050908152602001604051809103902060405180807f636f6e76657274656400000000000000000000000000000000000000000000008152506009019050908152602001604051809103902081905550600354600a0a600002600260405180807f70726f6a6563745f636172640000000000000000000000000000000000000000815250600c019050908152602001604051809103902060405180807f6d6f7665640000000000000000000000000000000000000000000000000000008152506005019050908152602001604051809103902081905550600354600a0a600002600260405180807f70726f6a6563745f636172640000000000000000000000000000000000000000815250600c019050908152602001604051809103902060405180807f64656c65746564000000000000000000000000000000000000000000000000008152506007019050908152602001604051809103902081905550600354600a0a600002600260405180807f70726f6a6563745f636f6c756d6e000000000000000000000000000000000000815250600e019050908152602001604051809103902060405180807f63726561746564000000000000000000000000000000000000000000000000008152506007019050908152602001604051809103902081905550600354600a0a600002600260405180807f70726f6a6563745f636f6c756d6e000000000000000000000000000000000000815250600e019050908152602001604051809103902060405180807f65646974656400000000000000000000000000000000000000000000000000008152506006019050908152602001604051809103902081905550600354600a0a600002600260405180807f70726f6a6563745f636f6c756d6e000000000000000000000000000000000000815250600e019050908152602001604051809103902060405180807f6d6f7665640000000000000000000000000000000000000000000000000000008152506005019050908152602001604051809103902081905550600354600a0a600002600260405180807f70726f6a6563745f636f6c756d6e000000000000000000000000000000000000815250600e019050908152602001604051809103902060405180807f64656c65746564000000000000000000000000000000000000000000000000008152506007019050908152602001604051809103902081905550600354600a0a6109c402600260405180807f70726f6a656374000000000000000000000000000000000000000000000000008152506007019050908152602001604051809103902060405180807f63726561746564000000000000000000000000000000000000000000000000008152506007019050908152602001604051809103902081905550600354600a0a600002600260405180807f70726f6a656374000000000000000000000000000000000000000000000000008152506007019050908152602001604051809103902060405180807f65646974656400000000000000000000000000000000000000000000000000008152506006019050908152602001604051809103902081905550600354600a0a6101f402600260405180807f70726f6a656374000000000000000000000000000000000000000000000000008152506007019050908152602001604051809103902060405180807f636c6f73656400000000000000000000000000000000000000000000000000008152506006019050908152602001604051809103902081905550600354600a0a600002600260405180807f70726f6a656374000000000000000000000000000000000000000000000000008152506007019050908152602001604051809103902060405180807f72656f70656e65640000000000000000000000000000000000000000000000008152506008019050908152602001604051809103902081905550600354600a0a600002600260405180807f70756c6c5f726571756573745f7265766965775f636f6d6d656e740000000000815250601b019050908152602001604051809103902060405180807f63726561746564000000000000000000000000000000000000000000000000008152506007019050908152602001604051809103902081905550600354600a0a600002600260405180807f70756c6c5f726571756573745f7265766965775f636f6d6d656e740000000000815250601b019050908152602001604051809103902060405180807f65646974656400000000000000000000000000000000000000000000000000008152506006019050908152602001604051809103902081905550600354600a0a600002600260405180807f70756c6c5f726571756573745f7265766965775f636f6d6d656e740000000000815250601b019050908152602001604051809103902060405180807f64656c65746564000000000000000000000000000000000000000000000000008152506007019050908152602001604051809103902081905550600354600a0a600002600260405180807f70756c6c5f726571756573745f726576696577000000000000000000000000008152506013019050908152602001604051809103902060405180807f7375626d697474656400000000000000000000000000000000000000000000008152506009019050908152602001604051809103902081905550600354600a0a600002600260405180807f70756c6c5f726571756573745f726576696577000000000000000000000000008152506013019050908152602001604051809103902060405180807f65646974656400000000000000000000000000000000000000000000000000008152506006019050908152602001604051809103902081905550600354600a0a600002600260405180807f70756c6c5f726571756573745f726576696577000000000000000000000000008152506013019050908152602001604051809103902060405180807f6469736d697373656400000000000000000000000000000000000000000000008152506009019050908152602001604051809103902081905550600354600a0a600002600260405180807f70756c6c5f726571756573740000000000000000000000000000000000000000815250600c019050908152602001604051809103902060405180807f61737369676e65640000000000000000000000000000000000000000000000008152506008019050908152602001604051809103902081905550600354600a0a600002600260405180807f70756c6c5f726571756573740000000000000000000000000000000000000000815250600c019050908152602001604051809103902060405180807f756e61737369676e656400000000000000000000000000000000000000000000815250600a019050908152602001604051809103902081905550600354600a0a600002600260405180807f70756c6c5f726571756573740000000000000000000000000000000000000000815250600c019050908152602001604051809103902060405180807f7265766965775f726571756573746564000000000000000000000000000000008152506010019050908152602001604051809103902081905550600354600a0a600002600260405180807f70756c6c5f726571756573740000000000000000000000000000000000000000815250600c019050908152602001604051809103902060405180807f7265766965775f726571756573745f72656d6f766564000000000000000000008152506016019050908152602001604051809103902081905550600354600a0a600002600260405180807f70756c6c5f726571756573740000000000000000000000000000000000000000815250600c019050908152602001604051809103902060405180807f6c6162656c6564000000000000000000000000000000000000000000000000008152506007019050908152602001604051809103902081905550600354600a0a600002600260405180807f70756c6c5f726571756573740000000000000000000000000000000000000000815250600c019050908152602001604051809103902060405180807f756e6c6162656c656400000000000000000000000000000000000000000000008152506009019050908152602001604051809103902081905550600354600a0a600002600260405180807f70756c6c5f726571756573740000000000000000000000000000000000000000815250600c019050908152602001604051809103902060405180807f6f70656e656400000000000000000000000000000000000000000000000000008152506006019050908152602001604051809103902081905550600354600a0a600002600260405180807f70756c6c5f726571756573740000000000000000000000000000000000000000815250600c019050908152602001604051809103902060405180807f65646974656400000000000000000000000000000000000000000000000000008152506006019050908152602001604051809103902081905550600354600a0a600002600260405180807f70756c6c5f726571756573740000000000000000000000000000000000000000815250600c019050908152602001604051809103902060405180807f636c6f73656400000000000000000000000000000000000000000000000000008152506006019050908152602001604051809103902081905550600354600a0a600002600260405180807f70756c6c5f726571756573740000000000000000000000000000000000000000815250600c019050908152602001604051809103902060405180807f72656f70656e65640000000000000000000000000000000000000000000000008152506008019050908152602001604051809103902081905550600354600a0a600002600260405180807f70756c6c5f726571756573740000000000000000000000000000000000000000815250600c019050908152602001604051809103902060405180807f73796e6368726f6e697a65000000000000000000000000000000000000000000815250600b019050908152602001604051809103902081905550600354600a0a61138802600260405180807f70696e670000000000000000000000000000000000000000000000000000000081525060040190509081526020016040518091039020604051806000019050908152602001604051809103902081905550600354600a0a600002600260405180807f707573680000000000000000000000000000000000000000000000000000000081525060040190509081526020016040518091039020604051806000019050908152602001604051809103902081905550600354600a0a600002600260405180807f72656c65617365000000000000000000000000000000000000000000000000008152506007019050908152602001604051809103902060405180807f7075626c697368656400000000000000000000000000000000000000000000008152506009019050908152602001604051809103902081905550600354600a0a600002600260405180807f7265706f7369746f727900000000000000000000000000000000000000000000815250600a019050908152602001604051809103902060405180807f63726561746564000000000000000000000000000000000000000000000000008152506007019050908152602001604051809103902081905550600354600a0a600002600260405180807f7265706f7369746f727900000000000000000000000000000000000000000000815250600a019050908152602001604051809103902060405180807f64656c65746564000000000000000000000000000000000000000000000000008152506007019050908152602001604051809103902081905550600354600a0a600002600260405180807f7265706f7369746f727900000000000000000000000000000000000000000000815250600a019050908152602001604051809103902060405180807f7075626c6963697a656400000000000000000000000000000000000000000000815250600a019050908152602001604051809103902081905550600354600a0a600002600260405180807f7265706f7369746f727900000000000000000000000000000000000000000000815250600a019050908152602001604051809103902060405180807f707269766174697a656400000000000000000000000000000000000000000000815250600a019050908152602001604051809103902081905550600354600a0a600002600260405180807f73746174757300000000000000000000000000000000000000000000000000008152506006019050908152602001604051809103902060405180807f70656e64696e67000000000000000000000000000000000000000000000000008152506007019050908152602001604051809103902081905550600354600a0a600002600260405180807f73746174757300000000000000000000000000000000000000000000000000008152506006019050908152602001604051809103902060405180807f73756363657373000000000000000000000000000000000000000000000000008152506007019050908152602001604051809103902081905550600354600a0a600002600260405180807f73746174757300000000000000000000000000000000000000000000000000008152506006019050908152602001604051809103902060405180807f6661696c757265000000000000000000000000000000000000000000000000008152506007019050908152602001604051809103902081905550600354600a0a600002600260405180807f73746174757300000000000000000000000000000000000000000000000000008152506006019050908152602001604051809103902060405180807f6572726f720000000000000000000000000000000000000000000000000000008152506005019050908152602001604051809103902081905550600354600a0a600002600260405180807f7465616d000000000000000000000000000000000000000000000000000000008152506004019050908152602001604051809103902060405180807f63726561746564000000000000000000000000000000000000000000000000008152506007019050908152602001604051809103902081905550600354600a0a600002600260405180807f7465616d000000000000000000000000000000000000000000000000000000008152506004019050908152602001604051809103902060405180807f64656c65746564000000000000000000000000000000000000000000000000008152506007019050908152602001604051809103902081905550600354600a0a600002600260405180807f7465616d000000000000000000000000000000000000000000000000000000008152506004019050908152602001604051809103902060405180807f65646974656400000000000000000000000000000000000000000000000000008152506006019050908152602001604051809103902081905550600354600a0a600002600260405180807f7465616d000000000000000000000000000000000000000000000000000000008152506004019050908152602001604051809103902060405180807f61646465645f746f5f7265706f7369746f7279000000000000000000000000008152506013019050908152602001604051809103902081905550600354600a0a600002600260405180807f7465616d000000000000000000000000000000000000000000000000000000008152506004019050908152602001604051809103902060405180807f72656d6f7665645f66726f6d5f7265706f7369746f72790000000000000000008152506017019050908152602001604051809103902081905550600354600a0a600002600260405180807f7465616d5f61646400000000000000000000000000000000000000000000000081525060080190509081526020016040518091039020604051806000019050908152602001604051809103902081905550600354600a0a6101f402600260405180807f77617463680000000000000000000000000000000000000000000000000000008152506005019050908152602001604051809103902060405180807f73746172746564000000000000000000000000000000000000000000000000008152506007019050908152602001604051809103902081905550506107ec806169d16000396000f300606060405260043610610062576000357c0100000000000000000000000000000000000000000000000000000000900463ffffffff168063666e1b39146100675780638bea0396146100b857806392956c1e14610182578063f2fde38b1461023d575b600080fd5b341561007257600080fd5b61009e600480803573ffffffffffffffffffffffffffffffffffffffff16906020019091905050610276565b604051808215151515815260200191505060405180910390f35b34156100c357600080fd5b610168600480803590602001908201803590602001908080601f0160208091040260200160405190810160405280939291908181526020018383808284378201915050505050509190803590602001908201803590602001908080601f01602080910402602001604051908101604052809392919081815260200183838082843782019150505050505091908035906020019091908035906020019091905050610296565b604051808215151515815260200191505060405180910390f35b341561018d57600080fd5b610220600480803590602001908201803590602001908080601f0160208091040260200160405190810160405280939291908181526020018383808284378201915050505050509190803590602001908201803590602001908080601f016020809104026020016040519081016040528093929190818152602001838380828437820191505050505050919050506104ad565b604051808381526020018281526020019250505060405180910390f35b341561024857600080fd5b610274600480803573ffffffffffffffffffffffffffffffffffffffff16906020019091905050610665565b005b60006020528060005260406000206000915054906101000a900460ff1681565b60008060003373ffffffffffffffffffffffffffffffffffffffff1673ffffffffffffffffffffffffffffffffffffffff16815260200190815260200160002060009054906101000a900460ff1615156102ef57600080fd5b826001866040518082805190602001908083835b6020831015156103285780518252602082019150602081019050602083039250610303565b6001836020036101000a0380198251168184511680821785525050505050509050019150509081526020016040518091039020856040518082805190602001908083835b602083101515610391578051825260208201915060208101905060208303925061036c565b6001836020036101000a038019825116818451168082178552505050505050905001915050908152602001604051809103902081905550816002866040518082805190602001908083835b60208310151561040157805182526020820191506020810190506020830392506103dc565b6001836020036101000a0380198251168184511680821785525050505050509050019150509081526020016040518091039020856040518082805190602001908083835b60208310151561046a5780518252602082019150602081019050602083039250610445565b6001836020036101000a03801982511681845116808217855250505050505090500191505090815260200160405180910390208190555060019050949350505050565b6000806001846040518082805190602001908083835b6020831015156104e857805182526020820191506020810190506020830392506104c3565b6001836020036101000a0380198251168184511680821785525050505050509050019150509081526020016040518091039020836040518082805190602001908083835b602083101515610551578051825260208201915060208101905060208303925061052c565b6001836020036101000a0380198251168184511680821785525050505050509050019150509081526020016040518091039020546002856040518082805190602001908083835b6020831015156105bd5780518252602082019150602081019050602083039250610598565b6001836020036101000a0380198251168184511680821785525050505050509050019150509081526020016040518091039020846040518082805190602001908083835b6020831015156106265780518252602082019150602081019050602083039250610601565b6001836020036101000a038019825116818451168082178552505050505050905001915050908152602001604051809103902054915091509250929050565b6000803373ffffffffffffffffffffffffffffffffffffffff1673ffffffffffffffffffffffffffffffffffffffff16815260200190815260200160002060009054906101000a900460ff1615156106bc57600080fd5b6000808273ffffffffffffffffffffffffffffffffffffffff1673ffffffffffffffffffffffffffffffffffffffff16815260200190815260200160002060009054906101000a900460ff1615156107bd5760016000808373ffffffffffffffffffffffffffffffffffffffff1673ffffffffffffffffffffffffffffffffffffffff16815260200190815260200160002060006101000a81548160ff02191690831515021790555060008060003373ffffffffffffffffffffffffffffffffffffffff1673ffffffffffffffffffffffffffffffffffffffff16815260200190815260200160002060006101000a81548160ff0219169083151502179055505b505600a165627a7a723058201bab2a23fbf7e4cdaef3a95da0e51460169c532e78424ac7aa3d4f2584af92180029",
  "source": "pragma solidity ^0.4.15;\n\nimport './Ownable.sol';\n\ncontract RewardPoints is Ownable {\n\n  mapping(string => mapping(string => uint)) rewardValues;\n  mapping(string => mapping(string => uint)) reservedValues;\n  uint256 decimals;\n\n  function RewardPoints(uint256 _decimals) public {\n    decimals = _decimals;\n    // Any time a Commit is commented on.\n    rewardValues['commit_comment']['created']        = 250 * 10**decimals;\n\n     // Any time a Branch or Tag is created.\n    rewardValues['create']['repository']             = 2500 * 10**decimals;\n    rewardValues['create']['branch']                 = 150 * 10**decimals;\n    rewardValues['create']['tag']                    = 150 * 10**decimals;\n\n    // Any time a Branch or Tag is deleted.\n    rewardValues['delete']['branch']                 = 0 * 10**decimals;\n    rewardValues['delete']['tag']                    = 0 * 10**decimals;\n\n     // Any time a Repository has a new deployment created from the API.\n    rewardValues['deployment']['']                   = 1000 * 10**decimals;\n\n    // Any time a deployment for a Repository has a status update\n    rewardValues['deployment_status']['success']     = 500 * 10**decimals;\n    rewardValues['deployment_status']['pending']     = 0 * 10**decimals;\n    rewardValues['deployment_status']['failure']     = 0 * 10**decimals;\n    rewardValues['deployment_status']['error']       = 0 * 10**decimals;\n\n    // Any time a Repository is forked.\n    rewardValues['fork']['']                         = 100 * 10**decimals;\n\n     // Any time a Wiki page is updated.\n    rewardValues['gollum']['created']                = 500 * 10**decimals;\n    rewardValues['gollum']['edited']                 = 50 * 10**decimals;\n\n    // Any time a GitHub App is installed or uninstalled.\n    rewardValues['installation']['created']           = 1000 * 10**decimals;\n    rewardValues['installation']['deleted']           = 0 * 10**decimals;\n\n    // Any time a repository is added or removed from an organization (? check this)\n    rewardValues['installation_repositories']['added']   = 1000 * 10**decimals;\n    rewardValues['installation_repositories']['removed'] = 0 * 10**decimals;\n\n     // Any time a comment on an issue is created, edited, or deleted.\n    rewardValues['issues_comment']['created']           = 1000 * 10**decimals;\n    rewardValues['issues_comment']['edited']            = 250 * 10**decimals;\n    rewardValues['issues_comment']['deleted']           = 0 * 10**decimals;\n\n    // Any time an Issue is assigned, unassigned, labeled, unlabeled, opened, edited,\n    rewardValues['issues']['assigned']               = 100 * 10**decimals;\n    rewardValues['issues']['unassigned']             = 0 * 10**decimals;\n    rewardValues['issues']['labeled']                = 50 * 10**decimals;\n    rewardValues['issues']['unlabeled']              = 0 * 10**decimals;\n    rewardValues['issues']['opened']                 = 500 * 10**decimals;\n    rewardValues['issues']['edited']                 = 100 * 10**decimals;\n    rewardValues['issues']['milestoned']             = 50 * 10**decimals;\n    rewardValues['issues']['demilestoned']           = 0 * 10**decimals;\n    rewardValues['issues']['closed']                 = 500 * 10**decimals;\n    rewardValues['issues']['reopened']               = 150 * 10**decimals;\n\n    // Any time a Label is created, edited, or deleted.\n    rewardValues['label']['created']                 = 100 * 10**decimals;\n    rewardValues['label']['edited']                  = 50 * 10**decimals;\n    rewardValues['label']['deleted']                 = 0 * 10**decimals;\n\n    // Any time a user purchases, cancels, or changes their GitHub\n    rewardValues['marketplace_purchase']['purchased'] = 1000 * 10**decimals;\n    rewardValues['marketplace_purchase']['cancelled'] = 0 * 10**decimals;\n    rewardValues['marketplace_purchase']['changed']   = 250 * 10**decimals;\n\n    // Any time a User is added or removed as a collaborator to a Repository, or has\n    rewardValues['member']['added']                    = 1000 * 10**decimals;\n    rewardValues['member']['deleted']                  = 0 * 10**decimals;\n    rewardValues['member']['edited']                   = 250 * 10**decimals;\n\n    // Any time a User is added or removed from a team. Organization hooks only.\n    rewardValues['membership']['added']                = 500 * 10**decimals;\n    rewardValues['membership']['removed']              = 0 * 10**decimals;\n\n    // Any time a Milestone is created, closed, opened, edited, or deleted.\n    rewardValues['milestone']['created']               = 500 * 10**decimals;\n    rewardValues['milestone']['closed']                = 500 * 10**decimals;\n    rewardValues['milestone']['opened']                = 500 * 10**decimals;\n    rewardValues['milestone']['edited']                = 100 * 10**decimals;\n    rewardValues['milestone']['deleted']               = 0 * 10**decimals;\n\n    // Any time a user is added, removed, or invited to an Organization.\n    rewardValues['organization']['member_added']       = 1000 * 10**decimals;\n    rewardValues['organization']['member_removed']     = 0 * 10**decimals;\n    rewardValues['organization']['member_invited']     = 1000 * 10**decimals;\n\n    // Any time an organization blocks or unblocks a user. Organization hooks only.\n    rewardValues['org_block']['blocked']               = 0 * 10**decimals;\n    rewardValues['org_block']['unblocked']             = 0 * 10**decimals;\n\n     // Any time a Pages site is built or results in a failed build.\n    rewardValues['page_build']['built']                = 2500 * 10**decimals;\n\n    // Any time a Project Card is created, edited, moved, converted to an issue,\n    rewardValues['project_card']['created']           = 50 * 10**decimals;\n    rewardValues['project_card']['edited']            = 25 * 10**decimals;\n    rewardValues['project_card']['converted']         = 25 * 10**decimals;\n    rewardValues['project_card']['moved']             = 15 * 10**decimals;\n    rewardValues['project_card']['deleted']           = 0 * 10**decimals;\n\n    // Any time a Project Column is created, edited, moved, or deleted.\n    rewardValues['project_column']['created']            = 50 * 10**decimals;\n    rewardValues['project_column']['edited']             = 25 * 10**decimals;\n    rewardValues['project_column']['moved']              = 15 * 10**decimals;\n    rewardValues['project_column']['deleted']            = 0 * 10**decimals;\n\n    // Any time a Project is created, edited, closed, reopened, or deleted.\n    rewardValues['project']['created']                  = 2500 * 10**decimals;\n    rewardValues['project']['edited']                   = 100 * 10**decimals;\n    rewardValues['project']['closed']                   = 500 * 10**decimals;\n    rewardValues['project']['reopened']                 = 100 * 10**decimals;\n\n    rewardValues['pull_request_review_comment']['created']     = 250 * 10**decimals;\n    rewardValues['pull_request_review_comment']['edited']      = 100 * 10**decimals;\n    rewardValues['pull_request_review_comment']['deleted']     = 0 * 10**decimals;\n\n    // Any time a pull request review is submitted, edited, or dismissed.\n    rewardValues['pull_request_review']['submitted']       = 250 * 10**decimals;\n    rewardValues['pull_request_review']['edited']          = 100 * 10**decimals;\n    rewardValues['pull_request_review']['dismissed']       = 100 * 10**decimals;\n\n    // Any time a pull request is assigned, unassigned, labeled, unlabeled, opened, edited, closed, reopened, or synchronized (updated due to a new push in the branch that the pull request is tracking). Also any time a pull request review is requested, or a review request is removed.\n    rewardValues['pull_request']['assigned']               = 100 * 10**decimals;\n    rewardValues['pull_request']['unassigned']             = 0 * 10**decimals;\n    rewardValues['pull_request']['review_requested']       = 100 * 10**decimals;\n    rewardValues['pull_request']['review_request_removed'] = 0 * 10**decimals;\n    rewardValues['pull_request']['labeled']                = 50 * 10**decimals;\n    rewardValues['pull_request']['unlabeled']              = 0 * 10**decimals;\n    rewardValues['pull_request']['opened']                 = 100 * 10**decimals;\n    rewardValues['pull_request']['edited']                 = 50 * 10**decimals;\n    rewardValues['pull_request']['closed']                 = 100 * 10**decimals;\n    rewardValues['pull_request']['reopened']               = 15 * 10**decimals;\n    rewardValues['pull_request']['synchronize']            = 150 * 10**decimals;\n\n    // Use when setting up the webhook for github\n    rewardValues['ping']['']                               = 2500 * 10**decimals;\n\n    // Any Git push to a Repository, including editing tags or branches. Commits via API actions that update references are also counted. This is the default event.\n    rewardValues['push']['']                               = 250 * 10**decimals;\n\n    // Any time a Release is published in a Repository.\n    rewardValues['release']['published']                   = 5000 * 10**decimals;\n\n    // Any time a Repository is created, deleted (organization hooks only), made public, or made private.\n    rewardValues['repository']['created']                  = 1000 * 10**decimals;\n    rewardValues['repository']['deleted']                  = 0 * 10**decimals;\n    rewardValues['repository']['publicized']               = 2500 * 10**decimals;\n    rewardValues['repository']['privatized']               = 0 * 10**decimals;\n\n    // Any time a Repository has a status update from the API\n    rewardValues['status']['pending']                     = 0 * 10**decimals;\n    rewardValues['status']['success']                     = 500 * 10**decimals;\n    rewardValues['status']['failure']                     = 0 * 10**decimals;\n    rewardValues['status']['error']                       = 0 * 10**decimals;\n\n    // Any time a team is created, deleted, modified, or added to or removed from a repository. Organization hooks only\n    rewardValues['team']['created']                       = 1000 * 10**decimals;\n    rewardValues['team']['deleted']                       = 0 * 10**decimals;\n    rewardValues['team']['edited']                        = 100 * 10**decimals;\n    rewardValues['team']['added_to_repository']           = 100 * 10**decimals;\n    rewardValues['team']['removed_from_repository']       = 0 * 10**decimals;\n\n    // Any time a team is added or modified on a Repository.\n    rewardValues['team_add']['']                          = 1000 * 10**decimals;\n\n    // Any time a User stars a Repository.\n    rewardValues['watch']['started']                      = 500 * 10**decimals;\n\n\n    // Any time a Commit is commented on.\n    reservedValues['commit_comment']['created']           = 0 * 10**decimals;\n\n     // Any time a Branch or Tag is created.\n    reservedValues['create']['repository']                = 500 * 10**decimals;\n    reservedValues['create']['branch']                    = 0 * 10**decimals;\n    reservedValues['create']['tag']                       = 0 * 10**decimals;\n\n    // Any time a Branch or Tag is deleted.\n    reservedValues['delete']['branch']                    = 0 * 10**decimals;\n    reservedValues['delete']['tag']                       = 0 * 10**decimals;\n\n     // Any time a Repository has a new deployment created from the API.\n    reservedValues['deployment']['']                      = 0 * 10**decimals;\n\n    // Any time a deployment for a Repository has a status update\n    reservedValues['deployment_status']['success']        = 0 * 10**decimals;\n    reservedValues['deployment_status']['pending']        = 0 * 10**decimals;\n    reservedValues['deployment_status']['failure']        = 0 * 10**decimals;\n    reservedValues['deployment_status']['error']          = 0 * 10**decimals;\n\n    // Any time a Repository is forked.\n    reservedValues['fork']['']                            = 1000 * 10**decimals;\n\n     // Any time a Wiki page is updated.\n    reservedValues['gollum']['created']                   = 0 * 10**decimals;\n    reservedValues['gollum']['edited']                    = 0 * 10**decimals;\n\n    // Any time a GitHub App is installed or uninstalled.\n    reservedValues['installation']['created']             = 0 * 10**decimals;\n    reservedValues['installation']['deleted']             = 0 * 10**decimals;\n\n    // Any time a repository is added or removed from an organization (? check this)\n    reservedValues['installation_repositories']['added']   = 0 * 10**decimals;\n    reservedValues['installation_repositories']['removed'] = 0 * 10**decimals;\n\n     // Any time a comment on an issue is created, edited, or deleted.\n    reservedValues['issues_comment']['created']           = 0 * 10**decimals;\n    reservedValues['issues_comment']['edited']            = 0 * 10**decimals;\n    reservedValues['issues_comment']['deleted']           = 0 * 10**decimals;\n\n    // Any time an Issue is assigned, unassigned, labeled, unlabeled, opened, edited,\n    reservedValues['issues']['assigned']               = 0 * 10**decimals;\n    reservedValues['issues']['unassigned']             = 0 * 10**decimals;\n    reservedValues['issues']['labeled']                = 0 * 10**decimals;\n    reservedValues['issues']['unlabeled']              = 0 * 10**decimals;\n    reservedValues['issues']['opened']                 = 0 * 10**decimals;\n    reservedValues['issues']['edited']                 = 0 * 10**decimals;\n    reservedValues['issues']['milestoned']             = 0 * 10**decimals;\n    reservedValues['issues']['demilestoned']           = 0 * 10**decimals;\n    reservedValues['issues']['closed']                 = 0 * 10**decimals;\n    reservedValues['issues']['reopened']               = 0 * 10**decimals;\n\n    // Any time a Label is created, edited, or deleted.\n    reservedValues['label']['created']                 = 0 * 10**decimals;\n    reservedValues['label']['edited']                  = 0 * 10**decimals;\n    reservedValues['label']['deleted']                 = 0 * 10**decimals;\n\n    // Any time a user purchases, cancels, or changes their GitHub\n    reservedValues['marketplace_purchase']['purchased'] = 0 * 10**decimals;\n    reservedValues['marketplace_purchase']['cancelled'] = 0 * 10**decimals;\n    reservedValues['marketplace_purchase']['changed']   = 0 * 10**decimals;\n\n    // Any time a User is added or removed as a collaborator to a Repository, or has\n    reservedValues['member']['added']                    = 0 * 10**decimals;\n    reservedValues['member']['deleted']                  = 0 * 10**decimals;\n    reservedValues['member']['edited']                   = 0 * 10**decimals;\n\n    // Any time a User is added or removed from a team. Organization hooks only.\n    reservedValues['membership']['added']                = 0 * 10**decimals;\n    reservedValues['membership']['removed']              = 0 * 10**decimals;\n\n    // Any time a Milestone is created, closed, opened, edited, or deleted.\n    reservedValues['milestone']['created']               = 0 * 10**decimals;\n    reservedValues['milestone']['closed']                = 15000 * 10**decimals;\n    reservedValues['milestone']['opened']                = 0 * 10**decimals;\n    reservedValues['milestone']['edited']                = 0 * 10**decimals;\n    reservedValues['milestone']['delete']                = 0 * 10**decimals;\n\n    // Any time a user is added, removed, or invited to an Organization.\n    reservedValues['organization']['member_added']       = 15000 * 10**decimals;\n    reservedValues['organization']['member_removed']     = 0 * 10**decimals;\n    reservedValues['organization']['member_invited']     = 0 * 10**decimals;\n\n    // Any time an organization blocks or unblocks a user. Organization hooks only.\n    reservedValues['org_block']['blocked']               = 0 * 10**decimals;\n    reservedValues['org_block']['unblocked']             = 0 * 10**decimals;\n\n     // Any time a Pages site is built or results in a failed build.\n    reservedValues['page_build']['built']                = 0 * 10**decimals;\n\n    // Any time a Project Card is created, edited, moved, converted to an issue,\n    reservedValues['project_card']['created']           = 0 * 10**decimals;\n    reservedValues['project_card']['edited']            = 0 * 10**decimals;\n    reservedValues['project_card']['converted']         = 0 * 10**decimals;\n    reservedValues['project_card']['moved']             = 0 * 10**decimals;\n    reservedValues['project_card']['deleted']           = 0 * 10**decimals;\n\n    // Any time a Project Column is created, edited, moved, or deleted.\n    reservedValues['project_column']['created']            = 0 * 10**decimals;\n    reservedValues['project_column']['edited']             = 0 * 10**decimals;\n    reservedValues['project_column']['moved']              = 0 * 10**decimals;\n    reservedValues['project_column']['deleted']            = 0 * 10**decimals;\n\n    // Any time a Project is created, edited, closed, reopened, or deleted.\n    reservedValues['project']['created']                  = 2500 * 10**decimals;\n    reservedValues['project']['edited']                   = 0 * 10**decimals;\n    reservedValues['project']['closed']                   = 500 * 10**decimals;\n    reservedValues['project']['reopened']                 = 0 * 10**decimals;\n\n\n    reservedValues['pull_request_review_comment']['created']     = 0 * 10**decimals;\n    reservedValues['pull_request_review_comment']['edited']      = 0 * 10**decimals;\n    reservedValues['pull_request_review_comment']['deleted']     = 0 * 10**decimals;\n\n    // Any time a pull request review is submitted, edited, or dismissed.\n    reservedValues['pull_request_review']['submitted']       = 0 * 10**decimals;\n    reservedValues['pull_request_review']['edited']          = 0 * 10**decimals;\n    reservedValues['pull_request_review']['dismissed']       = 0 * 10**decimals;\n\n    // Any time a pull request is assigned, unassigned, labeled, unlabeled, opened, edited, closed, reopened, or synchronized (updated due to a new push in the branch that the pull request is tracking). Also any time a pull request review is requested, or a review request is removed.\n    reservedValues['pull_request']['assigned']               = 0 * 10**decimals;\n    reservedValues['pull_request']['unassigned']             = 0 * 10**decimals;\n    reservedValues['pull_request']['review_requested']       = 0 * 10**decimals;\n    reservedValues['pull_request']['review_request_removed'] = 0 * 10**decimals;\n    reservedValues['pull_request']['labeled']                = 0 * 10**decimals;\n    reservedValues['pull_request']['unlabeled']              = 0 * 10**decimals;\n    reservedValues['pull_request']['opened']                 = 0 * 10**decimals;\n    reservedValues['pull_request']['edited']                 = 0 * 10**decimals;\n    reservedValues['pull_request']['closed']                 = 0 * 10**decimals; // payload.merged\n    reservedValues['pull_request']['reopened']               = 0 * 10**decimals;\n    reservedValues['pull_request']['synchronize']            = 0 * 10**decimals;\n\n    // Use when setting up the webhook for github\n    reservedValues['ping']['']                               = 5000 * 10**decimals;\n\n    // Any Git push to a Repository, including editing tags or branches. Commits via API actions that update references are also counted. This is the default event.\n    reservedValues['push']['']                               = 0 * 10**decimals;\n\n    // Any time a Release is published in a Repository.\n    reservedValues['release']['published']                   = 0 * 10**decimals;\n\n    // Any time a Repository is created, deleted (organization hooks only), made public, or made private.\n    reservedValues['repository']['created']                  = 0 * 10**decimals;\n    reservedValues['repository']['deleted']                  = 0 * 10**decimals;\n    reservedValues['repository']['publicized']               = 0 * 10**decimals;\n    reservedValues['repository']['privatized']               = 0 * 10**decimals;\n\n    // Any time a Repository has a status update from the API\n    reservedValues['status']['pending']                     = 0 * 10**decimals;\n    reservedValues['status']['success']                     = 0 * 10**decimals;\n    reservedValues['status']['failure']                     = 0 * 10**decimals;\n    reservedValues['status']['error']                       = 0 * 10**decimals;\n\n    // Any time a team is created, deleted, modified, or added to or removed from a repository. Organization hooks only\n    reservedValues['team']['created']                       = 0 * 10**decimals;\n    reservedValues['team']['deleted']                       = 0 * 10**decimals;\n    reservedValues['team']['edited']                        = 0 * 10**decimals;\n    reservedValues['team']['added_to_repository']           = 0 * 10**decimals;\n    reservedValues['team']['removed_from_repository']       = 0 * 10**decimals;\n\n    // Any time a team is added or modified on a Repository.\n    reservedValues['team_add']['']                          = 0 * 10**decimals;\n\n    // Any time a User stars a Repository.\n    reservedValues['watch']['started']                      = 500 * 10**decimals;\n  }\n\n  function getRewardDetails(string _event, string _subtype) public constant returns (uint _rewardValue, uint _reserveValue) {\n    return (rewardValues[_event][_subtype], reservedValues[_event][_subtype]);\n  }\n\n  function setRewardDetails(string _event, string _subtype, uint _rewardValue, uint _reserveValue) onlyOwner public returns (bool success) {\n    rewardValues[_event][_subtype] = _rewardValue;\n    reservedValues[_event][_subtype] = _reserveValue;\n    return true;\n  }\n\n}\n",
  "sourcePath": "/Users/ryan/Projects/GitToken/gittoken-contracts/contracts/RewardPoints.sol",
  "compiler": {
    "name": "solc",
    "version": "0.4.18+commit.9cf6e910.Emscripten.clang"
  },
  "schemaVersion": "1.0.1",
  "updatedAt": "2017-12-04T00:45:58.902Z"
}